:020000040800F2
:1000000000500020D9130008691300086B13000882
:100010006D1300086F130008711300080000000042
:100020000000000000000000000000007313000842
:10003000751300080000000077130008791300080A
:1000400021140008211400082114000821140008BC
:1000500021140008211400082114000821140008AC
:10006000211400082114000821140008211400089C
:10007000211400082114000821140008211400088C
:100080002114000821140008211400088913000815
:100090007D13000821140008211400082114000811
:1000A000211400082114000821140008211400085C
:1000B000211400082114000821140008211400084C
:1000C000211400082114000821140008211400083C
:1000D000211400082114000821140008211400082C
:1000E0002114000821140008211400080000000059
:1000F0000000000000000000000000000000000000
:0C01000000000000000000005FF808F1A3
:10010C0010B5054C237833B9044B13B10448AFF345
:10011C0000800123237010BD0C00002000000000A3
:10012C007C14000808B5034B1BB103490348AFF31B
:10013C00008008BD00000000100000207C140008A6
:10014C0038B50E4B054618784FF47A73B3FBF0F3C1
:10015C000B4A1068B0FBF3F000F090FB044658B962
:10016C000F2D09D8024629464FF0FF3000F044FB12
:10017C00044B20461D6038BD012038BD0000002016
:10018C000800002004000020074A08B5136803206B
:10019C0043F01003136000F01DFB0020FFF7D0FFAD
:1001AC0001F038F8002008BD00200240034A044B3F
:1001BC0011681B780B441360704700BF28000020A7
:1001CC0000000020014B1868704700BF2800002079
:1001DC0038B50446FFF7F6FF0546631C1EBF044BFB
:1001EC001B78E418FFF7EEFF401B8442FAD838BDA9
:1001FC000000002038B5044600286ED090F820305E
:10020C000BB901F029F82268136823F0020313607C
:10021C00FFF7D8FF054623685A68910751D41A682E
:10022C0042F001021A60FFF7CDFF054623685A68B9
:10023C00D20754D5227E0020012A1A680CBF42F046
:10024C00800222F080021A60627E012A1A680CBFBA
:10025C0042F0400222F040021A60A27E012A1A6883
:10026C000CBF42F0200222F020021A60E27E012A2A
:10027C001A680CBF22F0100242F010021A60227FA2
:10028C00012A1A680CBF42F0080222F008021A6018
:10029C00627F012A1A680CBF42F0040222F00402A9
:1002AC001A60E168A2680A4321690A4361690A433A
:1002BC00616801390A43DA610123606284F82030F5
:1002CC0038BDFFF77FFF401B0A28A4D9636A43F4AB
:1002DC0000336362052384F82030012038BDFFF71A
:1002EC0071FF401B0A28A1D9F0E790F8203070B5B7
:1002FC00013B012B5FD8012403684869D3F8002225
:10030C0042F00102C3F8002200F01F0204FA02F2CC
:10031C00D443D3F81C522540C3F81C52CD6985BB7D
:10032C00D3F80C52CE682540C3F80C528D8803EBE1
:10033C00C00045EA0645C0F840528E680D8845EA73
:10034C000645C0F84452886968BBD3F804022040C3
:10035C00C3F80402086950BBD3F814022040C3F858
:10036C001402096A0020012902BFD3F81C120A43A7
:10037C00C3F81C22D3F8002222F00102C3F8002299
:10038C0070BD012DDFD1D3F80C520E681543C3F8A4
:10039C000C528D8803EBC00045EA0645C0F840526C
:1003AC008E688D89CBE7D3F804021043D0E7D3F8DD
:1003BC0014021043D3E7436A43F4802343620120C1
:1003CC0070BD38B590F820300446012B1FD10223A4
:1003DC00026880F82030136823F001031360FFF7E4
:1003EC00F1FE05462368586810F0010001D16062E7
:1003FC0038BDFFF7E7FE401B0A28F3D9636A43F4C4
:10040C0000336362052384F82030012038BD436A31
:10041C0043F400234362F8E7F0B590F820500668E7
:10042C00013D012DB46841D814F0E05F3AD0C4F31B
:10043C000164032C4FF0010505D1436A43F400031A
:10044C0043620120F0BDA5401D608868CF6804F1AF
:10045C00180310BB086847EA40501B01F0500869AC
:10046C002401097D3319C3F88401012908BFD3F88D
:10047C008411344404BF41F48071C3F88411516871
:10048C000020C4F88C111268C4F88821D3F880219C
:10049C0042F00102C3F88021F0BD4D68384340EAB8
:1004AC00C500DAE7436A43F40013C9E7436A43F42F
:1004BC008023C5E7F0B590F82040013C012C6BD8A7
:1004CC00066841B9F468A40707D1436A43F40013E2
:1004DC0043620120F0BD3469F5E70C013519D5F8FC
:1004EC00B07107F004079760002F4BD1D5F8B071AD
:1004FC007F0D1760D5F8B071264407F00207D7605E
:10050C00D5F8B47107F00F071761D5F8B471D5F8A9
:10051C00B451C7F307272D0C97615561D6F8B82154
:10052C001A7002682244D2F8B821120A5A70026872
:10053C002244D2F8B821120C9A7002682244D2F8E4
:10054C00B821120EDA7002682244D2F8BC211A715A
:10055C0002682244D2F8BC21120A5A710268224461
:10056C00D2F8BC21120C9A7102681444D4F8BC2144
:10057C00120EDA71036851B9DA6842F02002DA60BF
:10058C000020F0BDD5F8B071FF085760B2E71A69CA
:10059C0042F020021A61F3E7436A43F4802397E7A1
:1005AC0090F82030013B012B05D8026800205369DC
:1005BC00194351617047436A43F48023436201201D
:1005CC007047704770477047704770477047704767
:1005DC0070477047704770472DE9F84F0368054620
:1005EC005E69D3F8049016F001049F68D3F80CB040
:1005FC00D3F810A0D3F8188022D017F0010407D03C
:10060C000122B9079A6040F1A38000F0E5FD0024B7
:10061C00FB0509D54FF480722B68B8059A6040F140
:10062C00A5802846FFF7CDFFFB0309D54FF4803298
:10063C002B68B8039A6040F1A7802846FFF7C2FFE9
:10064C00330707D51BF0100F1FBF10222B6844F483
:10065C000074DA60770708D51BF0080F05D0082264
:10066C002B682846DA60FFF7B1FFB00706D52B6878
:10067C00DB68990702D0284600F0B6FD720607D554
:10068C001AF0100F1FBF10222B6844F480641A61FB
:10069C00B30608D51AF0080F05D008222B68284697
:1006AC001A61FFF795FFF70606D52B681B699807AB
:1006BC0002D02846FFF78BFFB10308D519F0100FB5
:1006CC0005D010222B6828465A60FFF782FFF203F0
:1006DC0008D519F0080F05D008222B6828465A6057
:1006EC00FFF778FF33042AD519F0040F2A6824D0B9
:1006FC00F70504D518F0010F18BF44F00104B0053C
:10070C0004D518F0020F18BF44F00204710504D58B
:10071C0018F0040F18BF44F0040433050DD518F07D
:10072C0070030AD0302B4CD03CD8102B43D0202B4C
:10073C0044D0936923F070039361042353602CB16C
:10074C006B6A28461C436C62FFF745FFBDE8F88FC7
:10075C007A0705D417F0080405D1FFF734FF57E7E3
:10076C004FF4006454E74FF4805451E7790502D5F7
:10077C0044F4005458E73A0502D544F4804453E756
:10078C002846FFF721FF4FE7790302D544F40044D4
:10079C0056E73A0302D544F4803451E72846FFF774
:1007AC0014FF4DE7502B0FD0602B10D0402BC0D135
:1007BC0044F04004BDE744F00804BAE744F01004E8
:1007CC00B7E744F02004B4E744F08004B1E744F404
:1007DC008074AEE7074A0002D36800F4E06023F4AB
:1007EC00E0631B041B0C43F0BF6343F4003303436F
:1007FC00D360704700ED00E0174B30B5DC68C4F3F4
:10080C000224C4F10703251D042B28BF0423062D45
:10081C004FF0010598BF002405FA03F303F1FF33F1
:10082C0088BF033C1940A14005FA04F4013C224066
:10083C00002842EA01024FEA0212A9BF00F160400F
:10084C00064BD2B200F56140BBBF00F00F00D2B234
:10085C0080F800231A5430BD00ED00E014ED00E0E8
:10086C00002808DB0123420900F01F0003FA00F006
:10087C00014B43F82200704700E100E00138B0F171
:10088C00807F0AD2F021064B064A586082F823106A
:10089C000020072298601A6070470120704700BF43
:1008AC0010E000E000ED00E02DE9F74F00242646B3
:1008BC00664BDFF8A8E1DFF8A8C10A6832FA06F542
:1008CC0002D103B0BDE8F08F4FF0010808FA06F82A
:1008DC0002EA080290457FD14D68122D00F0AA80E3
:1008EC0000F28380022D00F0A28077D8002D00F05A
:1008FC008980012D00F099804FF00F09FF2A93BFDA
:10090C00824606F18045083DD0F800B092BFB50094
:10091C00D0F804B0AD0009FA05F82BEA080804FA7F
:10092C0005F588BF00F1040A48EA0505CAF800502D
:10093C00D1F804A01AF0805F4ED0454D444FAD69FC
:10094C0026F0030845F00105BD61BD6908F180483A
:10095C0005F00105019508F5803806F0030B019DA3
:10096C004FEA8B0BD8F8085009FA0BF925EA09095C
:10097C00384DA84263D005F58065A84261D005F5D5
:10098C008065A8425FD005F58065A8420CBF0325A1
:10099C00042505FA0BF545EA0905C8F808501D6849
:1009AC001AF4803F14BF154395431D605D681AF41B
:1009BC00003F14BF154395435D609D681AF4801F7A
:1009CC0014BF154395439D60DD681AF4001F14BFD6
:1009DC002A4325EA0202DA6001366EE7032D22D0A3
:1009EC00112D89D1CC68043486E71B4FBD4209D048
:1009FC0012D8DFF870904D4504D009F580394D457B
:100A0C007FF47AAF8C68C4B1012C0CBFC0F8108095
:100A1C00C0F8148008246FE77545F3D06545F1D014
:100A2C00DFF84490EBE7002466E7CC6864E7CC6819
:100A3C00083461E7CC680C345EE704245CE70025DD
:100A4C00A7E70125A5E70225A3E700BF00040140A5
:100A5C00001002400008014000002110000031107D
:100A6C000000321000001110000022100AB10161C8
:100A7C0070470904FBE7C3680B4214BF4161016175
:100A8C00704700002DE9F341054608B901203CE010
:100A9C000368DB0710D42B689F075DD42B681907FC
:100AAC0000F194802B685A0700F1BE80E869002899
:100ABC0040F02C81002028E08F4C636803F00C037D
:100ACC00042B07D0636803F00C03082B09D163686F
:100ADC00DE0306D523689C03DDD56B68002BDAD1C9
:100AEC00D4E76B68B3F5803F12D1236843F48033AD
:100AFC002360FFF767FB064623689803CBD4FFF708
:100B0C0061FB801B6428F7D9032002B0BDE8F0819B
:100B1C009BB9236823F480332360236823F4802358
:100B2C002360FFF74FFB064623689903B3D5FFF705
:100B3C0049FB801B6428F7D9E6E7B3F5A02F23689F
:100B4C0003D143F480232360CFE723F48033236065
:100B5C00236823F48023CBE7674C636813F00C0FF6
:100B6C0007D0636803F00C03082B10D16368DA0319
:100B7C000DD423689B0702D52B69012B86D12368E2
:100B8C006A6923F0F80343EAC203236086E72A6903
:100B9C005A4B6AB101221A60FFF714FB0646236810
:100BAC009F07ECD4FFF70EFB801B0228F7D9ABE7AD
:100BBC001A60FFF707FB0646236898077FF56EAFB0
:100BCC00FFF700FB801B0228F6D99DE7AA694A4C67
:100BDC004B4BDAB101221A60FFF7F4FA0646636A4E
:100BEC009B070DD54FF4FA52464B1B68B3FBF2F33F
:100BFC00019300BF019B5A1E0192002BF9D151E7C2
:100C0C00FFF7E0FA801B0228E9D97DE71A60FFF7AD
:100C1C00D9FA0646636A9F077FF544AFFFF7D2FA0D
:100C2C00801B0228F6D96FE7334CE369D80024D433
:100C3C000127E36943F08053E361E36903F08053D8
:100C4C000093009B304E3368D90518D5EB68012B07
:100C5C0026D1236A43F001032362FFF7B3FA41F272
:100C6C0088368046236A9B073FD5002F3FF41EAF82
:100C7C00E36923F08053E36118E70027E2E7336868
:100C8C0043F480733360FFF79DFA80463368DA05CE
:100C9C00DCD4FFF797FAA0EB08006428F6D933E709
:100CAC00ABB9236A41F2883823F001032362236A2B
:100CBC0023F004032362FFF785FA0646236A98079C
:100CCC00D3D5FFF77FFA801B4045F7D91CE7052BDE
:100CDC00236A03D143F004032362BAE723F0010330
:100CEC002362236A23F00403B6E7FFF76BFAA0EB49
:100CFC000800B042B6D907E700100240000042429B
:100D0C008004424208000020007000402A4B5A68C0
:100D1C001C4602F00C02082A3DD00023274E022864
:100D2C0033602BD1FFF74EFA0746236899011FD485
:100D3C002B6AB3F5803F05D16268A96822F40032B2
:100D4C000A436260696A62680B4322F474121343AB
:100D5C00636001233360FFF735FA054623689A0177
:100D6C003FF5A8AEFFF72EFA401B0228F6D9CBE6CA
:100D7C00FFF728FAC01B0228D7D9C5E6FFF722FADD
:100D8C00054623689B017FF595AEFFF71BFA401BC8
:100D9C000228F6D9B8E601283FF4B7AE58682B6A9A
:100DAC0000F480329A427FF471AE6B6A00F47010DA
:100DBC00C01A18BF0120A8E6001002406000424291
:100DCC0030B5194B87B002AC03F1100522461868F8
:100DDC005968083303C2AB421446F7D101238DF88E
:100DEC000430022311498DF805304B6803F00C02D6
:100DFC00082A17D1C3F3834206A80244DB0312F876
:100E0C00102C0CD54B680A48C3F34043504306AA38
:100E1C00134413F8143CB0FBF3F007B030BD054895
:100E2C005043FAE70248F8E7941400080010024017
:100E3C0000127A0000093D002DE9F0410D460446F0
:100E4C0010B90120BDE8F081454A136803F007038F
:100E5C008B4229D321688E0731D4CA0744D4404A27
:100E6C00136803F007039D4267D322683D4D12F0CF
:100E7C00040F6ED1130706D56B68226923F46053F7
:100E8C0043EAC2036B60FFF79BFF6B68364AC3F300
:100E9C000313D35CD840354B1860354B1868FFF7FB
:100EAC004FF90020BDE8F081136823F007030B43D2
:100EBC001360136803F007039942C2D1CAE7294BA8
:100ECC0011F0040F1EBF5A6842F4E0625A60080722
:100EDC0042BF5A6842F460525A605A68A06822F0C5
:100EEC00F00202435A60B8E762681E4E012A33686A
:100EFC001BD113F4003FA4D0736841F2883823F05F
:100F0C00030313437360FFF75DF907467368626868
:100F1C0003F00C03B3EB820FA1D0FFF753F9C01B06
:100F2C004045F3D90320BDE8F081022A02D113F029
:100F3C00007FE0E713F0020FDDE7136823F00703EF
:100F4C002B431360136803F007039D427FF479AFC2
:100F5C008BE76B68E16823F4E0630B436B6089E714
:100F6C000020024000100240A414000808000020D9
:100F7C000400002010B50446002834D000238362FE
:100F8C0090F8513003F0FF021BB980F8502000F0AC
:100F9C00ABF90223226884F851301368A06823F05F
:100FAC00400313606368A1690343E068034320694D
:100FBC00034360690343E0690343206A0343A06A67
:100FCC00034301F40070090C034301F004011360A6
:100FDC005160D369002023F40063D3610123606561
:100FEC0084F8513010BD012010BD10B590B02822EE
:100FFC00002106A800F034FA0021142201A800F008
:10100C002FFA4FF480330122022407930E934FF4EE
:10101C00E01306A806920A920F930D94FFF732FD87
:10102C000F234FF4806201930023214601A8029400
:10103C00039304920593FFF7FFFE10B010BD000060
:10104C0080B5102788B0FFF79FF8FFF7CEFF3A4620
:10105C0000210DEB070000F003FA544B4FF4005144
:10106C009A6953483A439A619A6900243A4001922A
:10107C00019A9A694FF0020842F020029A619A692B
:10108C00012602F020020292029A9A69494D42F01E
:10109C0004029A619B69002203F004030393039BEF
:1010AC00FFF7E4FC002239464348FFF7DFFC4FF41E
:1010BC000053049311230DEB07013D48059306944F
:1010CC00CDF81C80FFF7F0FB0DEB07013A480497B5
:1010DC0005960694CDF81C80FFF7E6FB0923374AEA
:1010EC00284685E80C004FF4A023AC60EC602B6123
:1010FC006C612C766C76AC76EC762C776C77FFF793
:10110C0079F84FF482732E482E49846080E80A00E7
:10111C004FF4007383610A23C46004614461C761A6
:10112C00046244628462C362FFF724FF0E232649E3
:10113C0028464B624C618C61CE610C604C608C60BB
:10114C00CC600C610E62FFF7D0F82846FFF739F936
:10115C0028460321FFF724FA03201C4D40F22133CB
:10116C00EC60AC602C751A4C0822A0700420E07066
:10117C000520207106206071072085E84800267044
:10118C002646144F2A6184F80180A071E2713B4617
:10119C00324629460748FFF73FF94FF4FA60FFF74C
:1011AC0017F8E3790133E371F1E700BF0010024057
:1011BC000010014094000020000801400064004031
:1011CC00C8000020003001402C0000202801002025
:1011DC00BC000020C40000204FF400510148FFF770
:1011EC004ABC00BF0010014008B50021054B064A5F
:1011FC000648FFF75FF9BDE808404FF4005104487A
:10120C00FFF739BC20010020400100209400002091
:10121C00001001400E4B82B09A6942F001029A61B3
:10122C009A6902F001020092009ADA6942F0805247
:10123C00DA61DB69074A03F080530193019B536821
:10124C0023F0E06343F00073536002B0704700BFBB
:10125C00001002400000014010B5044686B0102278
:10126C00002102A800F0FCF822681D4B9A4235D1EF
:10127C0003F5D633DA6902A942F00072DA61DA6951
:10128C00184802F000720092009A9A6942F0040227
:10129C009A619B6903F004030193019B4FF4006373
:1012AC000293FFF701FB4FF4805302930223039345
:1012BC00032302A90B480593FFF7F6FA002213202B
:1012CC001146FFF799FA1320FFF7CAFA00221420EF
:1012DC001146FFF791FA1420FFF7C2FA06B010BDC1
:1012EC00006400400008014010B5044686B010228E
:1012FC00002102A800F0B4F82268164B9A4226D1BD
:10130C0003F560439A6902A942F480529A619A6982
:10131C00114802F480520092009A9A6942F0040239
:10132C009A619B6903F004030193019BA023029330
:10133C000223039303230593FFF7B6FA402302938A
:10134C00002302A9044803930493FFF7ADFA06B0F7
:10135C0010BD00BF00300140000801407047FEE79F
:10136C00FEE7FEE7FEE7704770477047FEF71EBFCB
:10137C000148FFF731B900BF94000020FFF7F8BF18
:10138C000F4B1A6842F001021A6059680D4A0A4064
:10139C005A601A6822F0847222F480321A601A6839
:1013AC0022F480221A605A6822F4FE025A604FF42A
:1013BC001F029A604FF00062034B9A60704700BFA7
:1013CC00001002400000FFF800ED00E0002103E0F7
:1013DC000B4B5B58435004310A480B4B42189A4252
:1013EC00F6D30A4A02E0002342F8043B084B9A4227
:1013FC00F9D3FFF7C5FF00F00FF8FFF721FE704798
:10140C00BC140008000000200C0000200C00002080
:10141C005C010020FEE7000070B500250C4E0D4C61
:10142C00A41BA410A54209D100F022F800250A4EF5
:10143C000A4CA41BA410A54205D170BD56F825304A
:10144C0098470135EEE756F8253098470135F2E715
:10145C00B4140008B4140008B4140008B81400083C
:10146C0003460244934200D1704703F8011BF9E78D
:10147C00F8B500BFF8BC08BC9E467047F8B500BF75
:08148C00F8BC08BC9E46704745
:1014940002030405060708090A0B0C0D0E0F1010B1
:1014A4000000000000000000010203040607080910
:0414B40031010008FA
:0414B8000D0100081A
:0C14BC0001000000100000000024F400FB
:04000005080013D903
:00000001FF
