:020000040800F2
:1000000000500020052600089525000897250008C7
:10001000992500089B2500089D2500080000000088
:100020000000000000000000000000009F25000804
:10003000A125000800000000A3250008A525000850
:100040004D2600084D2600084D2600084D260008C4
:100050004D2600084D2600084D2600084D260008B4
:100060004D2600084D2600084D2600084D260008A4
:100070004D2600084D2600084D2600084D26000894
:100080004D2600084D2600084D260008B52500081D
:10009000A92500084D2600084D2600084D26000819
:1000A0004D2600084D2600084D2600084D26000864
:1000B0004D2600084D2600084D2600084D26000854
:1000C0004D2600084D2600084D2600084D26000844
:1000D0004D2600084D2600084D2600084D26000834
:1000E0004D2600084D2600084D260008000000009F
:1000F0000000000000000000000000000000000000
:0C01000000000000000000005FF808F1A3
:10010C0010B5054C237833B9044B13B10448AFF345
:10011C0000800123237010BD0C00002000000000A3
:10012C00C026000808B5034B1BB103490348AFF3C5
:10013C00008008BD0000000010000020C026000850
:10014C007BB972B90029BEBF00204FF0004106E018
:10015C0008BF00281CBF6FF000414FF0FF3000F0CB
:10016C00ADB9ADF1080C6DE904CE002909DB002B0B
:10017C001ADB00F035F8DDF804E0DDE9022304B009
:10018C007047404261EB4101002B1BDB00F028F86B
:10019C00DDF804E0DDE9022304B0404261EB4101EB
:1001AC00524263EB43037047524263EB430300F04C
:1001BC0017F8DDF804E0DDE9022304B0404261EBFE
:1001CC0041017047524263EB430300F009F8DDF83C
:1001DC0004E0DDE9022304B0524263EB43037047B1
:1001EC002DE9F0478C460E460446089D002B50D155
:1001FC008A4217466CD9B2FA82FEBEF1000F0BD0C0
:10020C00CEF1200C01FA0EF620FA0CFC02FA0EF7D5
:10021C004CEA060C00FA0EF43A0CBCFBF2F9BBB239
:10022C0002FB19CC09FB03FA4FEA144848EA0C46C6
:10023C00B2450AD9F61909F1FF3180F02581B24592
:10024C0040F22281A9F102093E44A6EB0A06B6FB54
:10025C00F2F002FB106600FB03F3A4B244EA06447E
:10026C00A34209D9E41900F1FF3280F00B81A342BB
:10027C0040F2088102383C440021E41A40EA09406B
:10028C00002D62D0002324FA0EF42C606B60BDE8C4
:10029C00F0878B4207D9002D55D0002185E841000D
:1002AC000846BDE8F087B3FA83F1002940F08F804F
:1002BC00B34202D3824200F2FC80841A66EB03063E
:1002CC000120B446002D40D085E81010BDE8F08721
:1002DC0012B90127B7FBF2F7B7FA87FEBEF1000F90
:1002EC0035D10121F61B4FEA174C1FFA87F8B6FBE4
:1002FC00FCF20CFB126608FB02F0230C43EA0646E8
:10030C00B04207D9F61902F1FF3302D2B04200F223
:10031C00D2801A46361AB6FBFCF00CFB106608FBB2
:10032C0000F8A3B243EA0644A04507D9E41900F14A
:10033C00FF3302D2A04500F2B9801846A4EB0804A2
:10034C0040EA02409CE729462846BDE8F08707FAB8
:10035C000EF7CEF1200326FA03F24FEA174CB2FB4C
:10036C00FCF11FFA87F80CFB112206FA0EF620FAA4
:10037C0003F301FB08F933431E0C46EA0246B14570
:10038C0000FA0EF409D9F61901F1FF3280F08C80D5
:10039C00B14540F2898002393E44A6EB0906B6FB12
:1003AC00FCF00CFB106200FB08F99EB246EA024618
:1003BC00B14507D9F61900F1FF3371D2B1456FD9A8
:1003CC0002383E44A6EB090640EA01418FE7C1F131
:1003DC00200722FA07F88B4048EA030326FA07F4B1
:1003EC004FEA134EB4FBFEF91FFA83FC0EFB1944C3
:1003FC008E4020FA07F809FB0CFA48EA06084FEA87
:10040C00184646EA0444A24502FA01F200FA01F643
:10041C0008D9E41809F1FF3044D2A24542D9A9F118
:10042C0002091C44A4EB0A04B4FBFEF00EFB1044BE
:10043C0000FB0CFC1FFA88F848EA0444A44507D9D1
:10044C00E41800F1FF3E29D2A44527D902381C44F8
:10045C0040EA0940A0FB0289A4EB0C0CCC45C24637
:10046C00CE4615D312D055B1B6EB0A036CEB0E0683
:10047C0006FA07F7CB401F43CE402F606E60002179
:10048C00BDE8F0871046F7E68946DEE64645EAD237
:10049C00B8EB020A69EB030E0138E4E77046D7E7C4
:1004AC0018468FE78146BDE7114676E702383C4493
:1004BC0044E7084606E7023A3E442BE7704700BF84
:1004CC0038B50E4B054618784FF47A73B3FBF0F33E
:1004DC000B4A1068B0FBF3F000F090FB044658B9DF
:1004EC000F2D09D8024629464FF0FF3000F044FB8F
:1004FC00044B20461D6038BD012038BD0000002093
:10050C000800002004000020074A08B513680320E7
:10051C0043F01003136000F01DFB0020FFF7D0FF29
:10052C0001F08EFF002008BD00200240034A044B5E
:10053C0011681B780B441360704700BF2800002023
:10054C0000000020014B1868704700BF28000020F5
:10055C0038B50446FFF7F6FF0546631C1EBF044B77
:10056C001B78E418FFF7EEFF401B8442FAD838BD25
:10057C000000002038B5044600286ED090F82030DA
:10058C000BB901F07FFF2268136823F0020313609C
:10059C00FFF7D8FF054623685A68910751D41A68AB
:1005AC0042F001021A60FFF7CDFF054623685A6836
:1005BC00D20754D5227E0020012A1A680CBF42F0C3
:1005CC00800222F080021A60627E012A1A680CBF37
:1005DC0042F0400222F040021A60A27E012A1A6800
:1005EC000CBF42F0200222F020021A60E27E012AA7
:1005FC001A680CBF22F0100242F010021A60227F1F
:10060C00012A1A680CBF42F0080222F008021A6094
:10061C00627F012A1A680CBF42F0040222F0040225
:10062C001A60E168A2680A4321690A4361690A43B6
:10063C00616801390A43DA610123606284F8203071
:10064C0038BDFFF77FFF401B0A28A4D9636A43F427
:10065C0000336362052384F82030012038BDFFF796
:10066C0071FF401B0A28A1D9F0E790F8203070B533
:10067C00013B012B5FD8012403684869D3F80022A1
:10068C0042F00102C3F8002200F01F0204FA02F249
:10069C00D443D3F81C522540C3F81C52CD6985BBFA
:1006AC00D3F80C52CE682540C3F80C528D8803EB5E
:1006BC00C00045EA0645C0F840528E680D8845EAF0
:1006CC000645C0F84452886968BBD3F80402204040
:1006DC00C3F80402086950BBD3F814022040C3F8D5
:1006EC001402096A0020012902BFD3F81C120A4324
:1006FC00C3F81C22D3F8002222F00102C3F8002216
:10070C0070BD012DDFD1D3F80C520E681543C3F820
:10071C000C528D8803EBC00045EA0645C0F84052E8
:10072C008E688D89CBE7D3F804021043D0E7D3F859
:10073C0014021043D3E7436A43F48023436201203D
:10074C0070BD38B590F820300446012B1FD1022320
:10075C00026880F82030136823F001031360FFF760
:10076C00F1FE05462368586810F0010001D1606263
:10077C0038BDFFF7E7FE401B0A28F3D9636A43F440
:10078C0000336362052384F82030012038BD436AAE
:10079C0043F400234362F8E7F0B590F82050066864
:1007AC00013D012DB46841D814F0E05F3AD0C4F398
:1007BC000164032C4FF0010505D1436A43F4000397
:1007CC0043620120F0BDA5401D608868CF6804F12C
:1007DC00180310BB086847EA40501B01F050086929
:1007EC002401097D3319C3F88401012908BFD3F80A
:1007FC008411344404BF41F48071C3F884115168EE
:10080C000020C4F88C111268C4F88821D3F8802118
:10081C0042F00102C3F88021F0BD4D68384340EA34
:10082C00C500DAE7436A43F40013C9E7436A43F4AB
:10083C008023C5E7F0B590F82040013C012C6BD823
:10084C00066841B9F468A40707D1436A43F400135E
:10085C0043620120F0BD3469F5E70C013519D5F878
:10086C00B07107F004079760002F4BD1D5F8B07129
:10087C007F0D1760D5F8B071264407F00207D760DA
:10088C00D5F8B47107F00F071761D5F8B471D5F826
:10089C00B451C7F307272D0C97615561D6F8B821D1
:1008AC001A7002682244D2F8B821120A5A700268EF
:1008BC002244D2F8B821120C9A7002682244D2F861
:1008CC00B821120EDA7002682244D2F8BC211A71D7
:1008DC0002682244D2F8BC21120A5A7102682244DE
:1008EC00D2F8BC21120C9A7102681444D4F8BC21C1
:1008FC00120EDA71036851B9DA6842F02002DA603C
:10090C000020F0BDD5F8B071FF085760B2E71A6946
:10091C0042F020021A61F3E7436A43F4802397E71D
:10092C0090F82030013B012B05D802680020536958
:10093C00194351617047436A43F480234362012099
:10094C0070477047704770477047704770477047E3
:10095C0070477047704770472DE9F84F036805469C
:10096C005E69D3F8049016F001049F68D3F80CB0BC
:10097C00D3F810A0D3F8188022D017F0010407D0B8
:10098C000122B9079A6040F1A38001F03BFD0024DD
:10099C00FB0509D54FF480722B68B8059A6040F1BD
:1009AC00A5802846FFF7CDFFFB0309D54FF4803215
:1009BC002B68B8039A6040F1A7802846FFF7C2FF66
:1009CC00330707D51BF0100F1FBF10222B6844F400
:1009DC000074DA60770708D51BF0080F05D00822E1
:1009EC002B682846DA60FFF7B1FFB00706D52B68F5
:1009FC00DB68990702D0284601F00CFD720607D57A
:100A0C001AF0100F1FBF10222B6844F480641A6177
:100A1C00B30608D51AF0080F05D008222B68284613
:100A2C001A61FFF795FFF70606D52B681B69980727
:100A3C0002D02846FFF78BFFB10308D519F0100F31
:100A4C0005D010222B6828465A60FFF782FFF2036C
:100A5C0008D519F0080F05D008222B6828465A60D3
:100A6C00FFF778FF33042AD519F0040F2A6824D035
:100A7C00F70504D518F0010F18BF44F00104B005B8
:100A8C0004D518F0020F18BF44F00204710504D508
:100A9C0018F0040F18BF44F0040433050DD518F0FA
:100AAC0070030AD0302B4CD03CD8102B43D0202BC9
:100ABC0044D0936923F070039361042353602CB1E9
:100ACC006B6A28461C436C62FFF745FFBDE8F88F44
:100ADC007A0705D417F0080405D1FFF734FF57E760
:100AEC004FF4006454E74FF4805451E7790502D574
:100AFC0044F4005458E73A0502D544F4804453E7D3
:100B0C002846FFF721FF4FE7790302D544F4004450
:100B1C0056E73A0302D544F4803451E72846FFF7F0
:100B2C0014FF4DE7502B0FD0602B10D0402BC0D1B1
:100B3C0044F04004BDE744F00804BAE744F0100464
:100B4C00B7E744F02004B4E744F08004B1E744F480
:100B5C008074AEE7074A0002D36800F4E06023F427
:100B6C00E0631B041B0C43F0BF6343F400330343EB
:100B7C00D360704700ED00E0174B30B5DC68C4F370
:100B8C000224C4F10703251D042B28BF0423062DC2
:100B9C004FF0010598BF002405FA03F303F1FF336E
:100BAC0088BF033C1940A14005FA04F4013C2240E3
:100BBC00002842EA01024FEA0212A9BF00F160408C
:100BCC00064BD2B200F56140BBBF00F00F00D2B2B1
:100BDC0080F800231A5430BD00ED00E014ED00E065
:100BEC00002808DB0123420900F01F0003FA00F083
:100BFC00014B43F82200704700E100E00138B0F1EE
:100C0C00807F0AD2F021064B064A586082F82310E6
:100C1C000020072298601A6070470120704700BFBF
:100C2C0010E000E000ED00E02DE9F74F002426462F
:100C3C00664BDFF8A8E1DFF8A8C10A6832FA06F5BE
:100C4C0002D103B0BDE8F08F4FF0010808FA06F8A6
:100C5C0002EA080290457FD14D68122D00F0AA805F
:100C6C0000F28380022D00F0A28077D8002D00F0D6
:100C7C008980012D00F099804FF00F09FF2A93BF56
:100C8C00824606F18045083DD0F800B092BFB50011
:100C9C00D0F804B0AD0009FA05F82BEA080804FAFC
:100CAC0005F588BF00F1040A48EA0505CAF80050AA
:100CBC00D1F804A01AF0805F4ED0454D444FAD6979
:100CCC0026F0030845F00105BD61BD6908F18048B7
:100CDC0005F00105019508F5803806F0030B019D20
:100CEC004FEA8B0BD8F8085009FA0BF925EA0909D9
:100CFC00384DA84263D005F58065A84261D005F552
:100D0C008065A8425FD005F58065A8420CBF03251D
:100D1C00042505FA0BF545EA0905C8F808501D68C5
:100D2C001AF4803F14BF154395431D605D681AF497
:100D3C00003F14BF154395435D609D681AF4801FF6
:100D4C0014BF154395439D60DD681AF4001F14BF52
:100D5C002A4325EA0202DA6001366EE7032D22D01F
:100D6C00112D89D1CC68043486E71B4FBD4209D0C4
:100D7C0012D8DFF870904D4504D009F580394D45F7
:100D8C007FF47AAF8C68C4B1012C0CBFC0F8108012
:100D9C00C0F8148008246FE77545F3D06545F1D091
:100DAC00DFF84490EBE7002466E7CC6864E7CC6896
:100DBC00083461E7CC680C345EE704245CE700255A
:100DCC00A7E70125A5E70225A3E700BF0004014022
:100DDC0000100240000801400000211000003110FA
:100DEC000000321000001110000022100AB1016145
:100DFC0070470904FBE7C3680B4214BF41610161F2
:100E0C00704700002DE9F341054608B901203CE08C
:100E1C000368DB0710D42B689F075DD42B68190778
:100E2C0000F194802B685A0700F1BE80E869002815
:100E3C0040F02C81002028E08F4C636803F00C03F9
:100E4C00042B07D0636803F00C03082B09D16368EB
:100E5C00DE0306D523689C03DDD56B68002BDAD145
:100E6C00D4E76B68B3F5803F12D1236843F4803329
:100E7C002360FFF767FB064623689803CBD4FFF784
:100E8C0061FB801B6428F7D9032002B0BDE8F08118
:100E9C009BB9236823F480332360236823F48023D5
:100EAC002360FFF74FFB064623689903B3D5FFF782
:100EBC0049FB801B6428F7D9E6E7B3F5A02F23681C
:100ECC0003D143F480232360CFE723F480332360E2
:100EDC00236823F48023CBE7674C636813F00C0F73
:100EEC0007D0636803F00C03082B10D16368DA0396
:100EFC000DD423689B0702D52B69012B86D123685F
:100F0C006A6923F0F80343EAC203236086E72A697F
:100F1C005A4B6AB101221A60FFF714FB064623688C
:100F2C009F07ECD4FFF70EFB801B0228F7D9ABE729
:100F3C001A60FFF707FB0646236898077FF56EAF2C
:100F4C00FFF700FB801B0228F6D99DE7AA694A4CE3
:100F5C004B4BDAB101221A60FFF7F4FA0646636ACA
:100F6C009B070DD54FF4FA52464B1B68B3FBF2F3BB
:100F7C00019300BF019B5A1E0192002BF9D151E73E
:100F8C00FFF7E0FA801B0228E9D97DE71A60FFF72A
:100F9C00D9FA0646636A9F077FF544AFFFF7D2FA8A
:100FAC00801B0228F6D96FE7334CE369D80024D4B0
:100FBC000127E36943F08053E361E36903F0805355
:100FCC000093009B304E3368D90518D5EB68012B84
:100FDC0026D1236A43F001032362FFF7B3FA41F2EF
:100FEC0088368046236A9B073FD5002F3FF41EAFFF
:100FFC00E36923F08053E36118E70027E2E73368E5
:10100C0043F480733360FFF79DFA80463368DA054A
:10101C00DCD4FFF797FAA0EB08006428F6D933E785
:10102C00ABB9236A41F2883823F001032362236AA7
:10103C0023F004032362FFF785FA0646236A980718
:10104C00D3D5FFF77FFA801B4045F7D91CE7052B5A
:10105C00236A03D143F004032362BAE723F00103AC
:10106C002362236A23F00403B6E7FFF76BFAA0EBC5
:10107C000800B042B6D907E7001002400000424217
:10108C008004424208000020007000402A4B5A683D
:10109C001C4602F00C02082A3DD00023274E0228E1
:1010AC0033602BD1FFF74EFA0746236899011FD402
:1010BC002B6AB3F5803F05D16268A96822F400322F
:1010CC000A436260696A62680B4322F47412134328
:1010DC00636001233360FFF735FA054623689A01F4
:1010EC003FF5A8AEFFF72EFA401B0228F6D9CBE647
:1010FC00FFF728FAC01B0228D7D9C5E6FFF722FA5A
:10110C00054623689B017FF595AEFFF71BFA401B44
:10111C000228F6D9B8E601283FF4B7AE58682B6A16
:10112C0000F480329A427FF471AE6B6A00F4701056
:10113C00C01A18BF0120A8E600100240600042420D
:10114C0030B5194B87B002AC03F110052246186874
:10115C005968083303C2AB421446F7D101238DF80A
:10116C000430022311498DF805304B6803F00C0252
:10117C00082A17D1C3F3834206A80244DB0312F8F2
:10118C00102C0CD54B680A48C3F34043504306AAB5
:10119C00134413F8143CB0FBF3F007B030BD054812
:1011AC005043FAE70248F8E7D8260008001002403E
:1011BC0000127A0000093D002DE9F0410D4604466D
:1011CC0010B90120BDE8F081454A136803F007030C
:1011DC008B4229D321688E0731D4CA0744D4404AA4
:1011EC00136803F007039D4267D322683D4D12F04C
:1011FC00040F6ED1130706D56B68226923F4605374
:10120C0043EAC2036B60FFF79BFF6B68364AC3F37C
:10121C000313D35CD840354B1860354B1868FFF777
:10122C004FF90020BDE8F081136823F007030B434E
:10123C001360136803F007039942C2D1CAE7294B24
:10124C0011F0040F1EBF5A6842F4E0625A6008079E
:10125C0042BF5A6842F460525A605A68A06822F041
:10126C00F00202435A60B8E762681E4E012A3368E6
:10127C001BD113F4003FA4D0736841F2883823F0DB
:10128C00030313437360FFF75DF9074673686268E5
:10129C0003F00C03B3EB820FA1D0FFF753F9C01B83
:1012AC004045F3D90320BDE8F081022A02D113F0A6
:1012BC00007FE0E713F0020FDDE7136823F007036C
:1012CC002B431360136803F007039D427FF479AF3F
:1012DC008BE76B68E16823F4E0630B436B6089E791
:1012EC000020024000100240E82600080800002000
:1012FC0004000020F8B504460E4615461F4621682A
:10130C008A6836EA020301D00020F8BD6B1CF7D0C6
:10131C00FFF718F9C01B8542F1D823685A6822F0F0
:10132C00E0025A606268B2F5827F0AD1A268B2F517
:10133C00004F02D0B2F5806F03D11A6822F0400240
:10134C001A60A26AB2F5005F07D11A6822F4005243
:10135C001A601A6842F400521A60012384F8513062
:10136C000023032084F85030F8BD10B513460A460C
:10137C0080210446FFF7BEFF20B10320636D43F0CC
:10138C002003636510BD10B50446002834D000233B
:10139C00836290F8513003F0FF021BB980F85020A3
:1013AC0001F0B8F80223226884F851301368A06861
:1013BC0023F0400313606368A1690343E0680343AF
:1013CC002069034360690343E0690343206A0343D4
:1013DC00A06A034301F40070090C034301F00401FB
:1013EC0013605160D369002023F40063D36101239F
:1013FC00606584F8513010BD012010BD2DE9F3411A
:10140C001E4690F850300446012B0D46904600F0D5
:10141C009C80012380F85030FFF794F8074694F82D
:10142C005100C0B2012840F08E80002D5ED0B8F182
:10143C00000F5BD00323002084F85130A368606553
:10144C00A063A4F83680A087E087606420642068DD
:10145C00B3F5004F08BF0368256308BF43F480430E
:10146C00A4F8348008BF036003685B065EBF0368A2
:10147C0043F040030360E368B3F5006F63683ED14B
:10148C0013B1B8F1010F07D135F8023BC3602563E6
:10149C00E38E013B9BB2E386E38E9BB2A3B93A4643
:1014AC0031462046FFF761FF002849D1A36833B9C4
:1014BC0001932368DA6801929B680193019B606D2C
:1014CC00003018BF012011E022689368980705D5F9
:1014DC00236B33F8021BD1602363D9E7FFF732F893
:1014EC00C01BB042D8D3711CD6D00320012384F882
:1014FC005130002384F8503002B0BDE8F08113B1B4
:10150C00B8F1010F08D12B780373236B01332363DC
:10151C00E38E013B9BB2E386E38E9BB2002BBED0E5
:10152C0023689A68920703D5226B12781A73ECE73A
:10153C00FFF708F8C01B8642EED8731CECD0D4E73A
:10154C0020236365B2E70220D0E70220D4E72DE91F
:10155C00F7431E4690F850300446012B0D46914639
:10156C000A9F00F0E280012380F85030FEF7EAFF7A
:10157C0094F851308046DBB2012B61680AD0B1F58A
:10158C00827F40F0D080A068002840F0CC80042BF3
:10159C0040F0C980002D00F0C480B9F1000F00F0BC
:1015AC00C080002E00F0BD8094F85130C4F8389003
:1015BC00042B1CBF052384F851300023636523647E
:1015CC0063642368E687E6861A68A687500658BFC8
:1015DC001A68256358BF42F04002A68658BF1A60AD
:1015EC00E268B2F5006F58D109B1012E07D135F878
:1015FC00022BDA60E38E2563013B9BB2E386012567
:10160C00E38E9BB2ABB9E38F9BB293B9424639469A
:10161C002046FFF7AAFE002840F08180A368002B2B
:10162C0032D123680190DA6801929B680193019B87
:10163C002AE02268936899070DD5E38E9BB253B1CB
:10164C004DB10025236B33F8021BD1602363E38E6D
:10165C00013B9BB2E3869368DB070CD5E38F9BB20F
:10166C004BB10125D268A36B23F8022BA363E38F44
:10167C00013B9BB2E387FEF765FFA0EB08008742B6
:10168C00BED87E1CBCD00320012384F8513000232B
:10169C0084F8503003B0BDE8F08309B1012E08D1B5
:1016AC002A781A73236B01332363E38E013B9BB2BD
:1016BC00E3860125E38E9BB21BB9E38F9BB2002B13
:1016CC00A4D02268936898070ED5E38E9BB25BB1C9
:1016DC0055B10025236B1B781373236B01332363E4
:1016EC00E38E013B9BB2E38622689368D9070DD544
:1016FC00E38F9BB253B10125D268A36B1A70A36B15
:10170C000133A363E38F013B9BB2E387FEF71AFF20
:10171C00A0EB08008742CDD87B1CCBD0B3E72023AD
:10172C0063650120B0E70220AEE70220B2E748B1C2
:10173C0043683BB183682BB1C068B0FA80F04009B4
:10174C00404270474FF0FF30704770B50546184661
:10175C001C46FFF7ECFF70B9A3786668012B18BF25
:10176C0045F08005134660780A462946B0470028A4
:10177C0018BF6FF0030070BD0A2A28BF0A22F0B50B
:10178C00054687B018461E461446FFF7D0FF0028C2
:10179C0036D1002D34D0002932D0002A33D00B782A
:1017AC008DF80430B378012B0DD1012C01AA16D180
:1017BC002346B46829787078A047002818BF6FF0CA
:1017CC00030007B0F0BD631EDBB26A1E2B445078D9
:1017DC0000F07F0002F8010F9A42F8D1E5E70123EF
:1017EC00EF5C02EB430000F8017CC85C02F81300CC
:1017FC000133D8B2A042F3D36400013CA3B2D8E7C2
:10180C004FF0FF30DDE76FF00200DAE713B5F2239B
:10181C000C4600F0070002A98DF8073001F8030D03
:10182C00234601220DF10700FFF7A6FF88B9F4202B
:10183C00234601220DF106018DF80700FFF785FF05
:10184C0038B9234601220DF106010DF10700FFF70F
:10185C0093FF02B010BD73B50646F4200D46144636
:10186C0013460DF1070101228DF80600FFF76DFFFD
:10187C00F8B9F2070AD52B789DF807209B0003F0E6
:10188C001C0322F01C0213438DF80730B30708D554
:10189C009DF807306A7803F01F0343EA42138DF872
:1018AC000730234601220DF107010DF10600FFF769
:1018BC0063FF02B070BD73B50646F5200D461446A5
:1018CC0013460DF1070101228DF80600FFF73DFFCD
:1018DC00F8B932070AD5EB789DF807209B0003F086
:1018EC001C0322F01C0213438DF80730F30608D5B5
:1018FC009DF807302A7903F01F0343EA42138DF851
:10190C000730234601220DF107010DF10600FFF708
:10191C0033FF02B070BD10B504460846FFF707FF51
:10192C0048B90B4601222146F420FFF70EFF23781D
:10193C0003F00303237010BDE02337B58DF8053099
:10194C0000238DF80630B62305468DF80730FFF7D7
:10195C00EEFE08BB2B4601220DF107010DF105002F
:10196C00FFF70AFFC0B90624EB68022098472B4604
:10197C0001220DF10601F320FFF7E7FE9DF806307A
:10198C0028B9013C14F0FF0401D0DA07ECD413F0B1
:10199C00010F18BF6FF0050003B030BD002330B548
:1019AC0089B004468DF80330FFF7C1FE002840F0E3
:1019BC00A1800525234601220DF10301D020FFF75C
:1019CC00C4FE002840F098809DF80330602B40F056
:1019DC00938023702046FFF7AFFF002840F08A80E9
:1019EC0001461A2201A800F05CFE23461A2201A926
:1019FC008820FFF7AAFE00287CD19DF805209DF8D1
:101A0C00043001A943EA022323829DF807209DF8A4
:101A1C000630E12043EA022363829DF809209DF8F9
:101A2C00083043EA0223A3829DF80B209DF80A306C
:101A3C0043EA0223E3829DF80D209DF80C3043EA23
:101A4C00022323839DF80F209DF80E3043EA0223D6
:101A5C0063839DF811209DF8103043EA0223A38381
:101A6C009DF813209DF8123043EA0223E3839DF87E
:101A7C0015209DF8143043EA022323849DF8172087
:101A8C009DF8163043EA022363849DF819209DF8D3
:101A9C00183043EA0223A3849DF81B209DF81A30CA
:101AAC0043EA0223E3849DF81D30072284F8283092
:101ABC002346FFF74AFEE8B99DF805209DF804304F
:101ACC009DF9071043EA022363859DF8063084F8DC
:101ADC002C309DF8083003F00F0242EA0112E28527
:101AEC009DF909201B0943EA021323869DF80A304D
:101AFC0084F8323009B030BDE3680120013D9847CD
:101B0C0015F0FF057FF456AF6FF00100F2E71FB53B
:101B1C000422044603460DEB0201F220FFF715FEEA
:101B2C0058BB9DF80430204603F007038DF80A30AB
:101B3C009DF80630C3F382025B098DF809309DF8DD
:101B4C0007308DF80820C3F382025B098DF80B2057
:101B5C008DF80C30FFF7F0FE78B921469DF80A009D
:101B6C00FFF754FE224602A91F20FFF774FE20B98E
:101B7C00224602A91F20FFF79EFE04B010BD73B5CC
:101B8C00064608460C46FFF7D2FD054668B90DF12E
:101B9C000700FFF7C0FE054638B99DF807303BB982
:101BAC0071071CD116F0180F1DD1284602B070BD5C
:101BBC002046FFF7ACFF0028F2D00546F5E721469A
:101BCC0094F83A00FFF722FEB20705D0224604F142
:101BDC0038013046FFF73FFE0028EED1E2E77307ED
:101BEC00EDD40120F0E7224604F138013046FFF72E
:101BFC0062FEE2E737B5054608460C46FFF797FD4F
:101C0C0040BB0DF10500FFF786FE18BB9DF80530B3
:101C1C00DBB9F420234601220DF107018DF80600F3
:101C2C00FFF793FDB0B99DF8070005F0030520F010
:101C3C00030028438DF80700234601220DF107010C
:101C4C000DF10600FFF798FD04E02046FFF75FFF5B
:101C5C000028DED003B030BD437802781B0143EA84
:101C6C000233827843EA12130B600379C2781B01AA
:101C7C0043EA0233427943EA12134B608279C37907
:101C8C0043EA02238B6070472DE9F74F154601900C
:101C9C001C468A46002900F08781002A00F08481C6
:101CAC00002B00F081810023536013609360420786
:101CBC0029D0486822885300C2EB10125243C3EB60
:101CCC00D001B4F9023012134B43B4F904104A4357
:101CDC004FF4006193FBF1F34FF4804192FBF1F26E
:101CEC0013444FF48072636203EB8303803393FBE2
:101CFC00F2F342F234129342A8BF1346AC4A934219
:101D0C00ACBF6B606A60019BDB0740F1FF80626ACD
:101D1C00B4F90800D317B2F5FA3243F1FF33A2FB42
:101D2C00026702FB03F100FB03FE07EB4107C1173F
:101D3C0002FB01EEA0FB020171444FEA013C4CEAAC
:101D4C00105C4FEA003BB4F90A0000FB07FEC11718
:101D5C0006FB01EEA0FB06017144002871F1000E98
:101D6C0002DAFF3041F100014FEA102848EA01681D
:101D7C0018EB0B084FEA212949EB0C0918F1000B61
:101D8C00B4F8068049F5004CABFB080108FB0C11BC
:101D9C00002871F1000E03DA10F1FF3041F101015E
:101DAC004FEA61084FEAE17958EA090100F0FA803C
:101DBC004FF0000EB4F910004743A0FB06BCC1174E
:101DCC00B4F90E0006FB017143438C44C11702FBAE
:101DDC000131A0FB02230B445F04DAF800305604F7
:101DEC00B4F90C0047EAD237C3F580111BEB060B94
:101DFC004CEB070CCA071EEB0B064FEAC0074FEA69
:101E0C00510347EB0C07961B63EB070740F6354372
:101E1C00A6FB0301424603FB07114B46FEF790F964
:101E2C00002871F1000602460B4604DA41F6FF72F7
:101E3C00002312184B41B4F91660520B42EAC3420C
:101E4C005B1306FB03FEF71702FB07EEA6FB02670C
:101E5C007343774402FB0733A6FB02671F44002E33
:101E6C0077F1000304DA6FF07E420023B6185F416D
:101E7C00720E42EAC7121618B4F914204FEA6763BF
:101E8C0043EB01075143D31700FB0313A2FB0001E3
:101E9C001944002871F1000303DA0023454A801825
:101EAC005941C20C42EA4132CB1492197B41002AAF
:101EBC0073F1000102DAFF3243F10003120A42EA25
:101ECC00036010221912B4F912306426C3FB02010C
:101EDC00CB0FC01841F1000149104FEA3000A0FBB4
:101EEC00062306FB0133002A73F1000102DA7F326C
:101EFC0043F10003D20942EA43632F4A934228BFBD
:101F0C0013462E4A934238BF13462B60019B13F0A5
:101F1C00040044D04FF40066636A207FA3F5963327
:101F2C005843B4F91E20DAF808101205C2EB8131BF
:101F3C0090FBF6F0B4F9202094F9226003FB121206
:101F4C0073434FF480664FF4004193FBF6F308445F
:101F5C00434393FBF6F3B4F91A0003F50013434320
:101F6C004FF4804002F5804203F5005392FBF1F2EE
:101F7C0093FBF0F3534393FBF1F25243217ED211C6
:101F8C004A43102192FBF1F29B1A23EAE373B3F15B
:101F9C00C85FA8BF4FF0C85300201B13AB6003B041
:101FAC00BDE8F08F054BB0E74FF0FF30F7E700BF0F
:101FBC0060F0FFFFFFFF0700C0D8A700C0C62D00D0
:101FCC00002370B5064686B010460D4614460193A4
:101FDC000293039304930593FFF7A9FBA0B999B15E
:101FEC00134601A90822F720FFF7AFFB50B903A94C
:101FFC0001A8FFF731FE04F110032A4603A930466D
:10200C00FFF742FE06B070BD4FF0FF30FAE7FEF767
:10201C009FBA00002DE9F04788465C1CE4B21E46CE
:10202C00E31D23F0070382B002AFADEB030D02AD4D
:10203C009146ADEB030D22460021284600F031FB02
:10204C0085F80080DFF84480002240461021FEF71E
:10205C00CDFE32230DF1080A009352462346294641
:10206C000948FFF774FA0122044610214046FEF796
:10207C00BDFE32460DF10901484600F007FB60B287
:10208C00BD46BDE8F08700BFD40000200008014029
:10209C00B0B55C1CE4B2E01D20F0070000AFADEB66
:1020AC00000D1546684600F8011B29460B4D1A46D3
:1020BC0000F0ECFA284600221021FEF797FE32239E
:1020CC00224669460648FFF799F901220446102179
:1020DC002846FEF78BFE60B2BD46B0BD000801403D
:1020EC00D4000020002310B5114C6370A370114B69
:1020FC0020466360104BA360104BE360FFF74EFC6F
:10210C00052284F838200222012384F83920042285
:10211C0021461F2084F83A3084F83B2084F83C3068
:10212C00FFF72DFD2146BDE810400320FFF762BDEF
:10213C0054000020212000089D2000081B200008CE
:10214C0010B590B02822002106A800F0AAFA0021B0
:10215C00142201A800F0A5FA4FF4803301220224C6
:10216C0007930E934FF4E01306A806920A920F936E
:10217C000D94FEF747FE0F234FF48062019300236A
:10218C00214601A80294039304920593FFF714F8D7
:10219C0010B010BD2DE9F0474FF010098AB0FEF7D2
:1021AC00B3F9FFF7CDFF4A46002106A800F079FAF3
:1021BC00864B4FF400519A69854842EA09029A61AC
:1021CC009A69002402EA09020292029A9A694FF073
:1021DC00020842F020029A619A69012702F020025B
:1021EC000392039A9A694FF0030A42F004029A612F
:1021FC009A69784D02F004020492049A9A69764E18
:10220C0042F008029A619B69002203F008030593CF
:10221C00059BFEF7EBFD002218217048FEF7E6FD4A
:10222C00002203216E48FEF7E1FD4FF400530693A4
:10223C00112306A9664807930894CDF82480FEF76D
:10224C00F3FC182365480DEB0301069307970894DC
:10225C00CDF82480FEF7E8FC06A96148CDF818A05B
:10226C0007970894CDF82480FEF7DEFC09235D4A1D
:10227C00284685E80C004FF4A023AC60EC602B6181
:10228C006C612C766C76AC76EC762C776C77FEF7F2
:10229C0071F94FF4827354485449846080E80A0001
:1022AC004FF4007383610A23C46004614461C0F875
:1022BC001C90046244628462C362FFF764F80E23CC
:1022CC004B4928464B624C618C61CF610C604C6071
:1022DC008C60CC600C610F62FEF7C7F92846FEF7E4
:1022EC0030FA51462846FEF71BFBF02386E818000F
:1022FC000423F460B46034753E4C3A464946374882
:10230C003361277084F8018084F802A0E370A04642
:10231C00FEF76CFD3746FFF7E5FEDFF8E0A0DFF8CF
:10232C00E090354A35490720FFF74AFEDAF80420D9
:10233C00DAF800300192DAF8082000930692F022C5
:10234C003260C3F3072223706270C3F307421B0E83
:10235C003946A270E37042464B462846FEF71CFAFB
:10236C0040F6B830FEF7F4F8F12333609DF80430F2
:10237C00424623709DF80530394663709DF806304F
:10238C002846A3709DF80730E3704B46FEF704FA1D
:10239C0040F6B830FEF7DCF8F22333609DF81830C5
:1023AC00424623709DF81930394663709DF81A30F7
:1023BC002846A3709DF81B30E3704B46FEF7ECF9F2
:1023CC0040F6B830FEF7C4F8ABE700BF001002408F
:1023DC0000100140A0000020340100200008014042
:1023EC00000C014000640040D4000020003001408B
:1023FC002C000020C8000020540000209400002075
:10240C00D00000204FF400510148FEF7F4BC00BF8F
:10241C000010014008B50021054B064A0648FEF79E
:10242C0009FABDE808404FF400510448FEF7E3BC3C
:10243C002C0100204C010020A000002000100140C5
:10244C000E4B82B09A6942F001029A619A6902F0CD
:10245C0001020092009ADA6942F08052DA61DB697B
:10246C00074A03F080530193019B536823F0E06308
:10247C0043F00073536002B0704700BF001002407D
:10248C000000014010B5044686B01022002102A8BD
:10249C0000F007F922681D4B9A4235D103F5D6336B
:1024AC00DA6902A942F00072DA61DA69184802F0BE
:1024BC0000720092009A9A6942F004029A619B6938
:1024CC0003F004030193019B4FF400630293FEF7A6
:1024DC00ABFB4FF48053029302230393032302A913
:1024EC000B480593FEF7A0FB002213201146FEF7C4
:1024FC0043FB1320FEF774FB002214201146FEF759
:10250C003BFB1420FEF76CFB06B010BD00640040D2
:10251C000008014010B5044686B01022002102A824
:10252C0000F0BFF82268164B9A4226D103F560439F
:10253C009A6902A942F480529A619A69114802F48C
:10254C0080520092009A9A6942F004029A619B6947
:10255C0003F004030193019BA02302930223039332
:10256C0003230593FEF760FB40230293002302A98B
:10257C00044803930493FEF757FB06B010BD00BF4D
:10258C0000300140000801407047FEE7FEE7FEE71F
:10259C00FEE7704770477047FDF7C8BF0148FEF76C
:1025AC00DBB900BFA0000020FFF7F8BF0F4B1A6883
:1025BC0042F001021A6059680D4A0A405A601A68C2
:1025CC0022F0847222F480321A601A6822F480227B
:1025DC001A605A6822F4FE025A604FF41F029A6085
:1025EC004FF00062034B9A60704700BF001002402E
:1025FC000000FFF800ED00E0002103E00B4B5B58FE
:10260C00435004310A480B4B42189A42F6D30A4AFB
:10261C0002E0002342F8043B084B9A42F9D3FFF73F
:10262C00C5FF00F00FF8FFF7B5FD7047082700084D
:10263C00000000200C0000200C000020680100208D
:10264C00FEE7000070B500250C4E0D4CA41BA41029
:10265C00A54209D100F02EF800250A4E0A4CA41B05
:10266C00A410A54205D170BD56F825309847013508
:10267C00EEE756F8253098470135F2E700270008B9
:10268C0000270008002700080427000810B5431E87
:10269C000A44914200D110BD11F8014B03F8014FCF
:1026AC00F7E703460244934200D1704703F8011B3D
:1026BC00F9E70000F8B500BFF8BC08BC9E467047AF
:0C26CC00F8B500BFF8BC08BC9E46704783
:1026D80002030405060708090A0B0C0D0E0F10105B
:1026E80000000000000000000102030406070809BA
:0826F800F4DAFF7F010000008D
:04270000310100089B
:042704000D010008BB
:0C27080001000000100000000024F4009C
:0400000508002605C4
:00000001FF
