:020000040800F2
:10000000005000204D010008490500085505000872
:100010005B05000861050008670500080000000096
:100020000000000000000000000000006D05000856
:10003000790500080000000085050008910500080A
:100040009501000895010008950100089501000838
:100050009501000895010008950100089501000828
:100060009501000895010008950100089501000818
:100070009501000895010008950100089501000808
:100080009501000895010008950100089D050008EC
:10009000B1050008950100089501000895010008C8
:1000A00095010008950100089501000895010008D8
:1000B00095010008950100089501000895010008C8
:1000C00095010008950100089501000895010008B8
:1000D00095010008950100089501000895010008A8
:1000E0009501000895010008950100080000000036
:1000F0000000000000000000000000000000000000
:0C01000000000000000000005FF808F1A3
:10010C0010B5054C237833B9044B13B10448AFF345
:10011C0000800123237010BD0C00002000000000A3
:10012C00641E000808B5034B1BB103490348AFF329
:10013C00008008BD0000000010000020641E0008B4
:10014C00002103E00B4B5B58435004310A480B4B26
:10015C0042189A42F6D30A4A02E0002342F8043BC2
:10016C00084B9A42F9D300F027FA01F049FE00F04F
:10017C0005F97047A81E0008000000200C000020A4
:10018C000C000020C4000020FEE7000080B500AF8A
:10019C00184B194A1A60174B09225A60154B4FF02D
:1001AC0080429A60134B0022DA60124B4FF44022CB
:1001BC001A61104B4FF480125A610E4B00221A76C2
:1001CC000C4B00225A760B4B00229A76094B0022DC
:1001DC00DA76084B00221A77064B00225A7705482C
:1001EC0000F0A2FA0346002B01D000F06EF900BF1C
:1001FC0080BD00BF500000200064004080B500AFFF
:10020C00144B00225A61134B00229A61114B0122AC
:10021C00DA61104B00221A600E4B00225A600D4B13
:10022C0000229A600B4B0022DA600A4B00221A6102
:10023C00084B01221A62074B0E225A6205490648E6
:10024C0000F06CFB0346002B01D000F03EF900BF20
:10025C0080BD00BF280000205000002080B588B071
:10026C0000AF786007F1100300221A605A609A60A0
:10027C00DA607B681B68244A934241D1234A234BA2
:10028C00DB6943F00073D361204BDB6903F000732F
:10029C00FB60FB681D4A1D4B9B6943F00403936193
:1002AC001A4B9B6903F00403BB60BB684FF40063FB
:1002BC003B6100237B610023BB6107F110031946EE
:1002CC00134801F04FF84FF480533B6102237B61DC
:1002DC000323FB6107F1100319460D4801F042F8A6
:1002EC0000220021132001F006F8132001F01FF862
:1002FC0000220021142000F0FEFF142001F017F85A
:10030C0000BF2037BD4680BD006400400010024095
:10031C000008014080B483B000AF786000BF0C3798
:10032C00BD4680BC704780B483B000AF786000BF1E
:10033C000C37BD4680BC704780B483B000AF0E4A0A
:10034C000D4B9B6943F0200393610B4B9B6903F0AE
:10035C0020037B607B68084A074B9B6943F00403CE
:10036C009361054B9B6903F004033B603B6800BF42
:10037C000C37BD4680BC70470010024080B500AF02
:10038C0000F04EF900F05CF8FFF7D6FFFFF7FEFE29
:10039C00FFF734FF264800F08AFB0346002B01D000
:1003AC0000F093F80321224800F09BFC0346002B3D
:1003BC0001D000F08AF81F4B40F221321A601D4B1D
:1003CC0001225A601B4B0022DA601A4B00229A6001
:1003DC00184B08221A61174B00221A75164B012272
:1003EC001A70154B02225A70134B03229A70124B3F
:1003FC000422DA70104B05221A710F4B06225A7127
:10040C000D4B07229A710C4B0822DA710B4B0A4ADE
:10041C000849074800F08FFB4FF4FA7000F062F9BE
:10042C00054BDB790133DAB2034BDA71EEE700BF2F
:10043C00500000208C00002078000020800000205C
:10044C0080B590B000AF07F11803282200211846A0
:10045C0001F0FAFC3B1D00221A605A609A60DA60C7
:10046C001A610123BB614FF48033FB6100233B62B3
:10047C000123BB6202237B634FF48033BB634FF4D5
:10048C00E013FB6307F11803184601F0C9F80346A3
:10049C00002B01D000F019F80F237B600223BB6006
:1004AC000023FB604FF480633B6100237B613B1DA9
:1004BC000221184601F018FB0346002B01D000F076
:1004CC0004F800BF4037BD4680BD80B400AF00BF0C
:1004DC00BD4680BC7047000080B485B000AF154AA3
:1004EC00144B9B6943F001039361124B9B6903F01E
:1004FC000103BB60BB680F4A0E4BDB6943F08053B2
:10050C00D3610C4BDB6903F080537B607B680A4B37
:10051C005B68FB60FB6823F0E063FB60FB6843F007
:10052C000073FB60044AFB68536000BF1437BD4680
:10053C0080BC7047001002400000014080B400AF46
:10054C0000BFBD4680BC704780B400AFFEE780B4EE
:10055C0000AFFEE780B400AFFEE780B400AFFEE76B
:10056C0080B400AF00BFBD4680BC704780B400AF04
:10057C0000BFBD4680BC704780B400AF00BFBD4615
:10058C0080BC704780B500AF00F090F800BF80BD14
:10059C0080B500AF024800F0C9FB00BF80BD00BFB2
:1005AC005000002080B500AF024800F0BFFB00BF38
:1005BC0080BD00BF5000002080B400AF154A154B21
:1005CC001B6843F0010313601249124B5A68124B1B
:1005DC0013404B600F4A0F4B1B6823F0847323F4BA
:1005EC00803313600B4A0B4B1B6823F4802313607E
:1005FC00084A084B5B6823F4FE035360054B4FF429
:10060C001F029A60054B4FF000629A6000BFBD4616
:10061C0080BC7047001002400000FFF800ED00E0C5
:10062C0080B500AF084A084B1B6843F010031360F9
:10063C00032000F055FE002000F008F8FFF74CFFF7
:10064C000023184680BD00BF0020024080B582B058
:10065C0000AF7860124B1A68124B1B7819464FF496
:10066C007A73B3FBF1F3B2FBF3F3184600F06DFEB3
:10067C000346002B01D001230EE07B680F2B0AD818
:10068C00002279684FF0FF3000F035FE064A7B6897
:10069C001360002300E0012318460837BD4680BDD7
:1006AC0000000020080000200400002080B400AFEF
:1006BC00054B1B781A46054B1B681344034A136001
:1006CC0000BFBD4680BC704708000020C000002061
:1006DC0080B400AF024B1B681846BD4680BC704707
:1006EC00C000002080B584B000AF7860FFF7F0FF49
:1006FC00B8607B68FB60FB68B3F1FF3F05D0094B2A
:10070C001B781A46FB681344FB6000BFFFF7E0FF41
:10071C000246BB68D21AFB689A42F7D300BF103767
:10072C00BD4680BD0800002080B584B000AF786065
:10073C007B68002B01D10123ECE07B6893F820301F
:10074C00DBB2002B02D17868FFF788FD7B681B6851
:10075C007A681268126822F002021A60FFF7B8FF7A
:10076C00F86012E0FFF7B4FF0246FB68D31A0A2BBD
:10077C000BD97B685B6A43F400327B685A627B68F6
:10078C00052283F820200123C4E07B681B685B688A
:10079C0003F00203002BE5D17B681B687A681268B2
:1007AC00126842F001021A60FFF792FFF86012E043
:1007BC00FFF78EFF0246FB68D31A0A2B0BD97B6816
:1007CC005B6A43F400327B685A627B68052283F8CB
:1007DC00202001239EE07B681B685B6803F001030B
:1007EC00002BE5D07B681B7E012B08D17B681B6836
:1007FC007A681268126842F080021A6007E07B681F
:10080C001B687A681268126822F080021A607B6892
:10081C005B7E012B08D17B681B687A6812681268B2
:10082C0042F040021A6007E07B681B687A68126825
:10083C00126822F040021A607B689B7E012B08D163
:10084C007B681B687A681268126842F020021A6092
:10085C0007E07B681B687A681268126822F0200235
:10086C001A607B68DB7E012B08D17B681B687A6879
:10087C001268126822F010021A6007E07B681B688D
:10088C007A681268126842F010021A607B681B7F4B
:10089C00012B08D17B681B687A681268126842F0D9
:1008AC0008021A6007E07B681B687A681268126895
:1008BC0022F008021A607B685B7F012B08D17B68F1
:1008CC001B687A681268126842F004021A6007E02A
:1008DC007B681B687A681268126822F004021A603E
:1008EC007B681B687A6891687A68D26811437A6869
:1008FC00126911437A68526911437A685268013A55
:10090C000A43DA617B6800225A627B68012283F811
:10091C002020002318461037BD4680BD80B487B018
:10092C0000AF786039607B681B687B617B6893F8EB
:10093C002030FB74FB7C012B03D0FB7C022B40F0A2
:10094C00AA807B69D3F8003243F001027B69C3F8BB
:10095C0000223B685B6903F01F03012202FA03F3D8
:10096C00FB607B69D3F81C22FB68DB431A407B6974
:10097C00C3F81C223B68DB69002B23D17B69D3F8BD
:10098C000C22FB68DB431A407B69C3F80C223B68E2
:10099C005A693B68DB6819043B685B689BB2194376
:1009AC007B69483243F832103B685B693A6892685D
:1009BC0011043A68126892B20A4379694833DB0031
:1009CC000B445A603B68DB69012B22D17B69D3F85D
:1009DC000C22FB681A437B69C3F80C223B685A69EA
:1009EC003B681B6819043B685B689BB219437B69C5
:1009FC00483243F832103B685B693A6892681104DC
:100A0C003A68D26892B20A4379694833DB000B44E6
:100A1C005A603B689B69002B09D17B69D3F804228F
:100A2C00FB68DB431A407B69C3F8042207E07B694F
:100A3C00D3F80422FB681A437B69C3F804223B6891
:100A4C001B69002B09D17B69D3F81422FB68DB43AB
:100A5C001A407B69C3F8142207E07B69D3F814228F
:100A6C00FB681A437B69C3F814223B681B6A012B91
:100A7C0007D17B69D3F81C22FB681A437B69C3F846
:100A8C001C227B69D3F8003223F001027B69C3F886
:100A9C000022002306E07B685B6A43F480227B68BB
:100AAC005A62012318461C37BD4680BC704780B57E
:100ABC0084B000AF78607B6893F82030DBB2012BF8
:100ACC002ED17B68022283F820207B681B687A6811
:100ADC001268126822F001021A60FFF7F9FDF86043
:100AEC0012E0FFF7F5FD0246FB68D31A0A2B0BD96F
:100AFC007B685B6A43F400327B685A627B68052230
:100B0C0083F82020012312E07B681B685B6803F0EC
:100B1C000103002BE5D17B6800225A62002306E01A
:100B2C007B685B6A43F400227B685A620123184697
:100B3C001037BD4680BD80B489B000AFF860B96095
:100B4C007A603B60FB6893F82030FB77FB681B688E
:100B5C009B68BB61FB7F012B03D0FB7F022B40F01A
:100B6C00B480BB6903F08063002B0AD1BB6903F02E
:100B7C000063002B05D1BB6903F08053002B00F000
:100B8C009C80BB691B0E03F003037B617B69022B0A
:100B9C0007D9FB685B6A43F40002FB685A620123C5
:100BAC009AE001227B699A403B681A60BB689B689B
:100BBC00002B0DD1FB681968BB681B685A05BB6814
:100BCC00DB681A437B6918331B010B441A600FE076
:100BDC00FB681968BB685B68DA00BB689B681A43E2
:100BEC00BB68DB681A437B6918331B010B441A6022
:100BFC00FB681968BB681A697B6918331B010B44C5
:100C0C0004331A60BB681B7D012B11D1FB6819687A
:100C1C00FB681A687B6918331B01134404331B6887
:100C2C0043F480727B6918331B010B4404331A6044
:100C3C00FB6819687B6807331B781A067B680633D8
:100C4C001B781B041A437B6805331B781B02134368
:100C5C007A68043212781A437B691B010B4403F542
:100C6C00C6731A60FB6819687B6803331B781A0615
:100C7C007B6802331B781B041A437B6801331B7897
:100C8C001B0213437A6812781A437B691B010B44CD
:100C9C0003F5C4731A60FB681968FB681A687B69F2
:100CAC0018331B0113441B6843F001027B69183392
:100CBC001B010B441A6000230EE0FB685B6A43F4D3
:100CCC000012FB685A62012306E0FB685B6A43F47E
:100CDC008022FB685A62012318462437BD4680BC2B
:100CEC00704780B485B000AF786039607B6893F84A
:100CFC002030FB73FB7B012B02D0FB7B022B09D139
:100D0C007B681B687A68126851693A680A435A61B1
:100D1C00002306E07B685B6A43F480227B685A629E
:100D2C00012318461437BD4680BC704780B58AB085
:100D3C0000AF786000237B627B681B685B693B6259
:100D4C007B681B685B68FB617B681B689B68BB618D
:100D5C007B681B68DB687B617B681B681B693B617C
:100D6C007B681B689B69FB603B6A03F00103002BEB
:100D7C007CD0BB6903F00103002B23D07B681B687C
:100D8C0001229A60BB6903F00203002B03D0786840
:100D9C00FFF7C0FA16E0BB6903F00403002B04D084
:100DAC007B6A43F400637B620CE0BB6903F00803CD
:100DBC00002B04D07B6A43F480537B6202E078689A
:100DCC0000F077F9BB6903F48073002B24D07B68A7
:100DDC001B684FF480729A60BB6903F40073002B9C
:100DEC0003D0786800F053F916E0BB6903F4806314
:100DFC00002B04D07B6A43F400537B620CE0BB698C
:100E0C0003F40063002B04D07B6A43F480437B62C1
:100E1C0002E0786800F056F9BB6903F48033002BCC
:100E2C0024D07B681B684FF480329A60BB6903F452
:100E3C000033002B03D0786800F032F916E0BB6960
:100E4C0003F48023002B04D07B6A43F400437B62C1
:100E5C000CE0BB6903F40023002B04D07B6A43F441
:100E6C0080337B6202E0786800F035F93B6A03F06E
:100E7C000803002B0CD07B6903F01003002B07D068
:100E8C007B6A43F400737B627B681B681022DA6018
:100E9C003B6A03F00403002B0BD07B6903F00803BF
:100EAC00002B06D07B681B680822DA60786800F09B
:100EBC001BF93B6A03F00203002B09D07B681B680B
:100ECC00DB6803F00303002B02D07868FFF72BFAE2
:100EDC003B6A03F04003002B0CD03B6903F010037A
:100EEC00002B07D07B6A43F480637B627B681B68B2
:100EFC0010221A613B6A03F02003002B0BD03B69D4
:100F0C0003F00803002B06D07B681B6808221A61CB
:100F1C00786800F0FBF83B6A03F01003002B09D053
:100F2C007B681B681B6903F00303002B02D07868F5
:100F3C0000F0E3F83B6A03F40033002B0BD0FB69A1
:100F4C0003F01003002B06D07B681B6810225A603C
:100F5C00786800F0E4F83B6A03F48033002B0BD084
:100F6C00FB6903F00803002B06D07B681B68082282
:100F7C005A60786800F0DCF83B6A03F40043002BFD
:100F8C0075D0FB6903F00403002B6CD03B6A03F4AF
:100F9C008073002B08D0FB6803F00103002B03D0F7
:100FAC007B6A43F001037B623B6A03F40073002B02
:100FBC0008D0FB6803F00203002B03D07B6A43F0DC
:100FCC0002037B623B6A03F48063002B08D0FB684E
:100FDC0003F00403002B03D07B6A43F004037B6211
:100FEC003B6A03F40063002B3DD0FB6803F07003F5
:100FFC00002B38D0FB6803F07003302B17D0302B4C
:10100C0004D8102B09D0202B0CD024E0502B18D056
:10101C00602B1BD0402B0FD01DE07B6A43F00803E4
:10102C007B6218E07B6A43F010037B6213E07B6AFF
:10103C0043F020037B620EE07B6A43F040037B624B
:10104C0009E07B6A43F080037B6204E07B6A43F433
:10105C0080737B6200BF7B681B687A681268926938
:10106C0022F070029A617B681B6804225A607B6ACA
:10107C00002B08D07B685A6A7B6A1A437B685A62D9
:10108C00786800F05EF800BF2837BD4680BD80B49C
:10109C0083B000AF786000BF0C37BD4680BC704792
:1010AC0080B483B000AF786000BF0C37BD4680BC05
:1010BC00704780B483B000AF786000BF0C37BD467A
:1010CC0080BC704780B483B000AF786000BF0C3731
:1010DC00BD4680BC704780B483B000AF786000BF61
:1010EC000C37BD4680BC704780B483B000AF7860CD
:1010FC0000BF0C37BD4680BC704780B483B000AFD6
:10110C00786000BF0C37BD4680BC704780B483B09C
:10111C0000AF786000BF0C37BD4680BC704780B410
:10112C0083B000AF786000BF0C37BD4680BC704701
:10113C0080B483B000AF786000BF0C37BD4680BC74
:10114C00704780B483B000AF786000BF0C37BD46E9
:10115C0080BC704780B485B000AF78607B6803F0CA
:10116C000703FB600C4BDB68BB60BA684FF6FF03F0
:10117C001340BB60FB681A02BB68134343F0BF63A8
:10118C0043F40033BB60044ABB68D36000BF143720
:10119C00BD4680BC704700BF00ED00E080B400AFDE
:1011AC00044BDB681B0A03F007031846BD4680BCE2
:1011BC00704700BF00ED00E080B483B000AF034681
:1011CC00FB71084997F907305B09FA7902F01F02A5
:1011DC00012000FA02F241F8232000BF0C37BD4673
:1011EC0080BC704700E100E080B483B000AF0346E0
:1011FC003960FB7197F90730002B0BDA0D49FB793D
:10120C0003F00F03043B3A68D2B21201D2B20B4482
:10121C001A7609E0084997F907303A68D2B21201F8
:10122C00D2B20B4483F8002300BF0C37BD4680BC00
:10123C00704700BF00ED00E000E100E080B489B031
:10124C0000AFF860B9607A60FB6803F00703FB61DC
:10125C00FB69C3F10703042B28BF0423BB61FB69A3
:10126C000433062B02D9FB69033B00E000237B61AE
:10127C000122BB6902FA03F35A1EBB681A407B6950
:10128C009A4001217B6901FA03F3591E7B680B40DC
:10129C00134318462437BD4680BC704780B582B0D6
:1012AC0000AF78607B68013BB3F1807F01D30123F1
:1012BC000FE00A4A7B68013B53600F214FF0FF306F
:1012CC00FFF792FF054B00229A60044B07221A602D
:1012DC00002318460837BD4680BD00BF10E000E073
:1012EC0080B582B000AF78607868FFF733FF00BF3D
:1012FC000837BD4680BD80B586B000AF0346B960E7
:10130C007A60FB7300237B61FFF748FF78617A6892
:10131C00B9687869FFF792FF024697F90F301146CA
:10132C001846FFF761FF00BF1837BD4680BD80B57A
:10133C0082B000AF0346FB7197F907301846FFF7F0
:10134C003BFF00BF0837BD4680BD80B582B000AF03
:10135C0078607868FFF7A2FF034618460837BD4649
:10136C0080BD000080B48BB000AF78603960002382
:10137C00FB610023BB6100237B6100233B620023E4
:10138C003B6100237B6227E101227B6A02FA03F3B3
:10139C00FB613B681A68FB691340BB61BA69FB6966
:1013AC009A4240F016813B685B68122B34D0122BAA
:1013BC000DD8022B2BD0022B04D8002B31D0012BB3
:1013CC001CD048E0032B43D0112B1BD043E0874AA1
:1013DC00934226D0854A934206D8854A934220D020
:1013EC00844A93421DD036E0834A934219D0834AF3
:1013FC00934216D0824A934213D02CE03B68DB68B0
:10140C003B6228E03B68DB6804333B6223E03B68CB
:10141C00DB6808333B621EE03B68DB680C333B62E5
:10142C0019E03B689B68002B02D104233B6212E05D
:10143C003B689B68012B05D108233B627B68FA69EA
:10144C001A6108E008233B627B68FA695A6102E082
:10145C0000233B6200BFBB69FF2B01D87B6801E016
:10146C007B680433FB60BB69FF2B02D87B6A9B0053
:10147C0002E07B6A083B9B003B61FB681A680F210A
:10148C003B6901FA03F3DB431A40396A3B6901FA01
:10149C0003F31A43FB681A603B685B6803F08053E4
:1014AC00002B00F09680574A564B9B6943F0010382
:1014BC009361544B9B6903F00103BB60BB68524AB8
:1014CC007B6A9B08023352F823307B617B6A03F002
:1014DC0003039B000F2202FA03F3DB437A691340E8
:1014EC007B617B68494A934213D07B68484A93429C
:1014FC000DD07B68474A934207D07B68464A93429B
:10150C0001D1032306E0042304E0022302E00123BB
:10151C0000E000237A6A02F00302920093407A6999
:10152C0013437B6138497B6A9B0802337A6941F823
:10153C0023203B685B6803F48033002B06D03749CB
:10154C00364B1A68BB6913430B6006E03349334BC7
:10155C001A68BB69DB4313400B603B685B6803F4A0
:10156C000033002B06D02D492C4B5A68BB69134312
:10157C004B6006E02949294B5A68BB69DB43134091
:10158C004B603B685B6803F48013002B06D0234947
:10159C00224B9A68BB6913438B6006E01F491F4BB3
:1015AC009A68BB69DB4313408B603B685B6803F450
:1015BC000013002B06D01949184BDA68BB6913438A
:1015CC00CB6006E01549154BDA68BB69DB43134069
:1015DC00CB607B6A01337B627B6A0F2B7FF6D4AEC8
:1015EC0000BF2C37BD4680BC704700BF00002110E7
:1015FC000000111000001210000031100000321019
:10160C0000002210001002400000014000080140C0
:10161C00000C014000100140001401400004014086
:10162C0080B586B000AF786000233B617B681B6897
:10163C0003F00103002B00F08780924B5B6803F0F2
:10164C000C03042B0CD08F4B5B6803F00C03082BA2
:10165C0012D18C4B5B6803F48033B3F5803F0BD114
:10166C00884B1B6803F40033002B6CD07B685B68E1
:10167C00002B68D101232DE27B685B68B3F5803FBA
:10168C0006D1804A7F4B1B6843F4803313602EE0F5
:10169C007B685B68002B0CD17A4A7A4B1B6823F46D
:1016AC0080331360774A774B1B6823F480231360D5
:1016BC001DE07B685B68B3F5A02F0CD1714A714BB0
:1016CC001B6843F4802313606E4A6E4B1B6843F413
:1016DC00803313600BE06B4A6A4B1B6823F4803336
:1016EC001360684A674B1B6823F4802313607B6884
:1016FC005B68002B13D0FEF7EBFF386108E0FEF7B8
:10170C00E7FF02463B69D31A642B01D90323E1E1BD
:10171C005C4B1B6803F40033002BF0D014E0FEF795
:10172C00D7FF386108E0FEF7D3FF02463B69D31AB6
:10173C00642B01D90323CDE1524B1B6803F4003316
:10174C00002BF0D100E000BF7B681B6803F00203A4
:10175C00002B63D04B4B5B6803F00C03002B0BD0BE
:10176C00484B5B6803F00C03082B1CD1454B5B68A2
:10177C0003F48033002B16D1424B1B6803F0020399
:10178C00002B05D07B681B69012B01D00123A1E143
:10179C003C493C4B1B6823F0F8027B685B69DB001F
:1017AC0013430B603AE07B681B69002B20D0364B4F
:1017BC0001221A60FEF78CFF386108E0FEF788FF03
:1017CC0002463B69D31A022B01D9032382E12D4B2C
:1017DC001B6803F00203002BF0D02A49294B1B682D
:1017EC0023F0F8027B685B69DB0013430B6015E0A8
:1017FC00254B00221A60FEF76BFF386108E0FEF7FC
:10180C0067FF02463B69D31A022B01D9032361E11E
:10181C001C4B1B6803F00203002BF0D17B681B6888
:10182C0003F00803002B39D07B689B69002B19D07F
:10183C00164B01221A60FEF74BFF386108E0FEF7E9
:10184C0047FF02463B69D31A022B01D9032341E11E
:10185C000C4B5B6A03F00203002BF0D0012000F06C
:10186C00B1FA1BE0094B00221A60FEF731FF386118
:10187C000EE0FEF72DFF02463B69D31A022B07D967
:10188C00032327E100100240000042428004424240
:10189C00924B5B6A03F00203002BEAD17B681B6856
:1018AC0003F00403002B00F0A6800023FB758B4B88
:1018BC00DB6903F08053002B0DD1884A874BDB6921
:1018CC0043F08053D361854BDB6903F08053FB609D
:1018DC00FB680123FB75824B1B6803F48073002BA0
:1018EC0018D17F4A7E4B1B6843F480731360FEF75C
:1018FC00EFFE386108E0FEF7EBFE02463B69D31AB7
:10190C00642B01D90323E5E0754B1B6803F480734A
:10191C00002BF0D07B68DB68012B06D16F4A6F4B34
:10192C001B6A43F0010313622DE07B68DB68002B1C
:10193C000CD16A4A694B1B6A23F001031362674A94
:10194C00664B1B6A23F0040313621CE07B68DB68A4
:10195C00052B0CD1614A614B1B6A43F004031362E3
:10196C005E4A5E4B1B6A43F0010313620BE05B4A59
:10197C005A4B1B6A23F001031362584A574B1B6ADC
:10198C0023F0040313627B68DB68002B15D0FEF791
:10199C009FFE38610AE0FEF79BFE02463B69D31AB4
:1019AC0041F28832934201D9032393E04B4B1B6ADB
:1019BC0003F00203002BEED014E0FEF789FE386131
:1019CC000AE0FEF785FE02463B69D31A41F28832E3
:1019DC00934201D903237DE0404B1B6A03F00203C1
:1019EC00002BEED1FB7D012B05D13C4A3B4BDB6937
:1019FC0023F08053D3617B68DB69002B69D0374BB4
:101A0C005B6803F00C03082B61D07B68DB69022B4D
:101A1C0046D1344B00221A60FEF75AFE386108E0BA
:101A2C00FEF756FE02463B69D31A022B01D903235B
:101A3C0050E02A4B1B6803F00073002BF0D17B683D
:101A4C001B6AB3F5803F08D12449244B5B6823F40F
:101A5C0000327B689B6813434B6020481F4B5B68CC
:101A6C0023F474127B68196A7B685B6A0B4313431B
:101A7C0043601C4B01221A60FEF72AFE386108E015
:101A8C00FEF726FE02463B69D31A022B01D903232B
:101A9C0020E0124B1B6803F00073002BF0D018E011
:101AAC00104B00221A60FEF713FE386108E0FEF7B7
:101ABC000FFE02463B69D31A022B01D9032309E01E
:101ACC00064B1B6803F00073002BF0D101E00123DF
:101ADC0000E0002318461837BD4680BD00100240B8
:101AEC00007000406000424280B584B000AF786066
:101AFC0039600023FB607E4B1B6803F007023B68D8
:101B0C009A4210D27A497A4B1B6823F007023B6841
:101B1C0013430B60764B1B6803F007023B689A4239
:101B2C0001D00123E0E07B681B6803F00203002B6B
:101B3C0020D07B681B6803F00403002B05D06D4A92
:101B4C006C4B5B6843F4E06353607B681B6803F089
:101B5C000803002B05D0674A664B5B6843F460535F
:101B6C0053606449634B5B6823F0F0027B689B68AD
:101B7C0013434B607B681B6803F00103002B6AD096
:101B8C007B685B68012B07D15A4B1B6803F400334D
:101B9C00002B15D10123A7E07B685B68022B07D1D2
:101BAC00544B1B6803F00073002B09D101239BE0FD
:101BBC00504B1B6803F00203002B01D1012393E06F
:101BCC004C494C4B5B6823F003027B685B68134306
:101BDC004B60FEF77DFDF8607B685B68012B12D1D2
:101BEC000AE0FEF775FD0246FB68D31A41F2883213
:101BFC00934201D9032377E03E4B5B6803F00C035F
:101C0C00042BEED127E07B685B68022B1DD10AE028
:101C1C00FEF75EFD0246FB68D31A41F2883293420E
:101C2C0001D9032360E0334B5B6803F00C03082BF2
:101C3C00EED110E0FEF74CFD0246FB68D31A41F2E0
:101C4C008832934201D903234EE02A4B5B6803F0A0
:101C5C000C03002BEED1264B1B6803F007023B68EC
:101C6C009A4210D92249224B1B6823F007023B6889
:101C7C0013430B601E4B1B6803F007023B689A4230
:101C8C0001D0012330E07B681B6803F00403002BB8
:101C9C0008D01849174B5B6823F4E0627B68DB685B
:101CAC0013434B607B681B6803F00803002B09D0BF
:101CBC001049104B5B6823F460527B681B69DB0096
:101CCC0013434B6000F01CF801460A4B5B681B0980
:101CDC0003F00F03084AD35C21FA03F3074A13609D
:101CEC000020FEF7B3FC002318461037BD4680BD1C
:101CFC000020024000100240901E0008000000204E
:101D0C0090B48AB000AF2A4B3C1D0FCB84E80F0077
:101D1C00284B1B883B800023FB610023BB61002305
:101D2C007B6200237B6100233B62234B5B68FB617E
:101D3C00FB6903F00C03042B02D0082B03D02DE01D
:101D4C001E4B3B622DE0FB699B0C03F00F0307F16C
:101D5C002802134413F8243C7B61FB6903F48033A1
:101D6C00002B13D0144B5B685B0C03F0010307F1E1
:101D7C002802134413F8283CBB617B690F4A02FB11
:101D8C0003F2BB69B2FBF3F37B6204E07B690C4AA0
:101D9C0002FB03F37B627B6A3B6202E0074B3B6214
:101DAC0000BF3B6A18462837BD4690BC704700BF41
:101DBC007C1E00088C1E00080010024000127A00E5
:101DCC0000093D0080B485B000AF78600A4B1B68F9
:101DDC000A4AA2FB03235B0A7A6802FB03F3FB604B
:101DEC0000BFFB685A1EFA60002BF9D100BF1437F4
:101DFC00BD4680BC704700BF00000020D34D621070
:101E0C0070B500250C4E0D4CA41BA410A54209D195
:101E1C0000F022F800250A4E0A4CA41BA410A5427F
:101E2C0005D170BD56F8253098470135EEE756F8C8
:101E3C00253098470135F2E7A01E0008A01E0008C7
:101E4C00A01E0008A41E000803460244934200D1C1
:101E5C00704703F8011BF9E7F8B500BFF8BC08BCE4
:101E6C009E467047F8B500BFF8BC08BC9E4670474C
:101E7C0002030405060708090A0B0C0D0E0F1010BF
:101E8C000102000000000000000000000102030439
:041E9C000607080924
:041EA0003101000804
:041EA4000D01000824
:0C1EA80000A24A0410000000010000002D
:040000050800014DA1
:00000001FF
