:020000040800F2
:1000000000500020712C0008FD1E0008FF1E000893
:10001000011F0008031F0008051F00080000000062
:10002000000000000000000000000000071F0008A2
:10003000091F0008000000000B1F00080D1F00082A
:10004000B92C0008B92C0008B92C0008B92C0008FC
:10005000B92C0008B92C0008B92C0008B92C0008EC
:10006000B92C0008B92C0008B92C0008B92C0008DC
:10007000B92C0008B92C0008B92C0008B92C0008CC
:10008000B92C0008B92C0008B92C00081D1F000865
:10009000111F0008B92C0008B92C0008B92C000861
:1000A000B92C0008B92C0008B92C0008B92C00089C
:1000B000B92C0008B92C0008B92C0008B92C00088C
:1000C000B92C0008B92C0008B92C0008B92C00087C
:1000D000B92C0008B92C0008B92C0008B92C00086C
:1000E000B92C0008B92C0008B92C00080000000049
:1000F0000000000000000000000000000000000000
:0C01000000000000000000005FF808F1A3
:10010C0010B5054C237833B9044B13B10448AFF345
:10011C0000800123237010BD70000020000000003F
:10012C007835000808B5034B1BB103490348AFF3FE
:10013C00008008BD00000000740000207835000825
:10014C0038B50E4B054618784FF47A73B3FBF0F3C1
:10015C000B4A1068B0FBF3F000F042FB044658B9B0
:10016C000F2D09D8024629464FF0FF3000F0F6FA61
:10017C00044B20461D6038BD012038BD0000002016
:10018C000800002004000020074A08B5136803206B
:10019C0043F01003136000F0CFFA0020FFF7D0FFFC
:1001AC0001F002FE002008BD00200240034A044B6F
:1001BC0011681B780B441360704700BFA00100202E
:1001CC0000000020014B1868704700BFA001002000
:1001DC0038B50446FFF7F6FF0546631C1EBF044BFB
:1001EC001B78E418FFF7EEFF401B8442FAD838BDA9
:1001FC000000002038B5044600286ED090F820305E
:10020C000BB901F0F3FD2268136823F002031360AD
:10021C00FFF7D8FF054623685A68910751D41A682E
:10022C0042F001021A60FFF7CDFF054623685A68B9
:10023C00D20754D5227E0020012A1A680CBF42F046
:10024C00800222F080021A60627E012A1A680CBFBA
:10025C0042F0400222F040021A60A27E012A1A6883
:10026C000CBF42F0200222F020021A60E27E012A2A
:10027C001A680CBF22F0100242F010021A60227FA2
:10028C00012A1A680CBF42F0080222F008021A6018
:10029C00627F012A1A680CBF42F0040222F00402A9
:1002AC001A60E168A2680A4321690A4361690A433A
:1002BC00616801390A43DA610123606284F82030F5
:1002CC0038BDFFF77FFF401B0A28A4D9636A43F4AB
:1002DC0000336362052384F82030012038BDFFF71A
:1002EC0071FF401B0A28A1D9F0E790F8203070B5B7
:1002FC00013B012B5FD8012403684869D3F8002225
:10030C0042F00102C3F8002200F01F0204FA02F2CC
:10031C00D443D3F81C522540C3F81C52CD6985BB7D
:10032C00D3F80C52CE682540C3F80C528D8803EBE1
:10033C00C00045EA0645C0F840528E680D8845EA73
:10034C000645C0F84452886968BBD3F804022040C3
:10035C00C3F80402086950BBD3F814022040C3F858
:10036C001402096A0020012902BFD3F81C120A43A7
:10037C00C3F81C22D3F8002222F00102C3F8002299
:10038C0070BD012DDFD1D3F80C520E681543C3F8A4
:10039C000C528D8803EBC00045EA0645C0F840526C
:1003AC008E688D89CBE7D3F804021043D0E7D3F8DD
:1003BC0014021043D3E7436A43F4802343620120C1
:1003CC0070BD38B590F820300446012B1FD10223A4
:1003DC00026880F82030136823F001031360FFF7E4
:1003EC00F1FE05462368586810F0010001D16062E7
:1003FC0038BDFFF7E7FE401B0A28F3D9636A43F4C4
:10040C0000336362052384F82030012038BD436A31
:10041C0043F400234362F8E7F0B590F82040013C28
:10042C00012C6BD8066841B9F468A40707D1436A5C
:10043C0043F4001343620120F0BD3469F5E70C016D
:10044C003519D5F8B07107F004079760002F4BD120
:10045C00D5F8B0717F0D1760D5F8B071264407F050
:10046C000207D760D5F8B47107F00F071761D5F8FC
:10047C00B471D5F8B451C7F307272D0C97615561AA
:10048C00D6F8B8211A7002682244D2F8B821120AA0
:10049C005A7002682244D2F8B821120C9A70026881
:1004AC002244D2F8B821120EDA7002682244D2F833
:1004BC00BC211A7102682244D2F8BC21120A5A716A
:1004CC0002682244D2F8BC21120C9A7102681444BE
:1004DC00D4F8BC21120EDA71036851B9DA6842F013
:1004EC002002DA600020F0BDD5F8B071FF0857602B
:1004FC00B2E71A6942F020021A61F3E7436A43F447
:10050C00802397E790F82030013B012B05D8026837
:10051C0000205369194351617047436A43F48023A7
:10052C0043620120704770477047704770477047AF
:10053C007047704770477047704770472DE9F84F08
:10054C00036805465E69D3F8049016F001049F68B1
:10055C00D3F80CB0D3F810A0D3F8188022D017F031
:10056C00010407D00122B9079A6040F1A38001F081
:10057C00DFFB0024FB0509D54FF480722B68B8050E
:10058C009A6040F1A5802846FFF7CDFFFB0309D503
:10059C004FF480322B68B8039A6040F1A78028464C
:1005AC00FFF7C2FF330707D51BF0100F1FBF102238
:1005BC002B6844F40074DA60770708D51BF0080F39
:1005CC0005D008222B682846DA60FFF7B1FFB00788
:1005DC0006D52B68DB68990702D0284601F0B0FBE2
:1005EC00720607D51AF0100F1FBF10222B6844F4A7
:1005FC0080641A61B30608D51AF0080F05D00822DA
:10060C002B6828461A61FFF795FFF70606D52B686D
:10061C001B69980702D02846FFF78BFFB10308D55A
:10062C0019F0100F05D010222B6828465A60FFF7DE
:10063C0082FFF20308D519F0080F05D008222B68A9
:10064C0028465A60FFF778FF33042AD519F0040FB7
:10065C002A6824D0F70504D518F0010F18BF44F010
:10066C000104B00504D518F0020F18BF44F00204C1
:10067C00710504D518F0040F18BF44F004043305B9
:10068C000DD518F070030AD0302B4CD03CD8102B61
:10069C0043D0202B44D0936923F07003936104233F
:1006AC0053602CB16B6A28461C436C62FFF745FF04
:1006BC00BDE8F88F7A0705D417F0080405D1FFF7C9
:1006CC0034FF57E74FF4006454E74FF4805451E77C
:1006DC00790502D544F4005458E73A0502D544F4A0
:1006EC00804453E72846FFF721FF4FE7790302D5F3
:1006FC0044F4004456E73A0302D544F4803451E7FD
:10070C002846FFF714FF4DE7502B0FD0602B10D06D
:10071C00402BC0D144F04004BDE744F00804BAE7D4
:10072C0044F01004B7E744F02004B4E744F080042C
:10073C00B1E744F48074AEE7074A0002D36800F4D2
:10074C00E06023F4E0631B041B0C43F0BF6343F431
:10075C0000330343D360704700ED00E0174B30B516
:10076C00DC68C4F30224C4F10703251D042B28BF45
:10077C000423062D4FF0010598BF002405FA03F35E
:10078C0003F1FF3388BF033C1940A14005FA04F480
:10079C00013C2240002842EA01024FEA0212A9BFA2
:1007AC0000F16040064BD2B200F56140BBBF00F0D7
:1007BC000F00D2B280F800231A5430BD00ED00E0D7
:1007CC0014ED00E0002808DB0123420900F01F00B3
:1007DC0003FA00F0014B43F82200704700E100E0FF
:1007EC000138B0F1807F0AD2F021064B064A5860DE
:1007FC0082F823100020072298601A6070470120AD
:10080C00704700BF10E000E000ED00E02DE9F74F6D
:10081C0000242646664BDFF8A8E1DFF8A8C10A6879
:10082C0032FA06F502D103B0BDE8F08F4FF00108A3
:10083C0008FA06F802EA080290457FD14D68122D9D
:10084C0000F0AA8000F28380022D00F0A28077D8FD
:10085C00002D00F08980012D00F099804FF00F09D8
:10086C00FF2A93BF824606F18045083DD0F800B0C0
:10087C0092BFB500D0F804B0AD0009FA05F82BEA28
:10088C00080804FA05F588BF00F1040A48EA0505D2
:10089C00CAF80050D1F804A01AF0805F4ED0454D34
:1008AC00444FAD6926F0030845F00105BD61BD69F3
:1008BC0008F1804805F00105019508F5803806F02F
:1008CC00030B019D4FEA8B0BD8F8085009FA0BF972
:1008DC0025EA0909384DA84263D005F58065A84280
:1008EC0061D005F58065A8425FD005F58065A8420A
:1008FC000CBF0325042505FA0BF545EA0905C8F8D4
:10090C0008501D681AF4803F14BF154395431D60B1
:10091C005D681AF4003F14BF154395435D609D68F4
:10092C001AF4801F14BF154395439D60DD681AF4BB
:10093C00001F14BF2A4325EA0202DA6001366EE773
:10094C00032D22D0112D89D1CC68043486E71B4F9E
:10095C00BD4209D012D8DFF870904D4504D009F58E
:10096C0080394D457FF47AAF8C68C4B1012C0CBF33
:10097C00C0F81080C0F8148008246FE77545F3D0D8
:10098C006545F1D0DFF84490EBE7002466E7CC68CE
:10099C0064E7CC68083461E7CC680C345EE7042467
:1009AC005CE70025A7E70125A5E70225A3E700BF23
:1009BC00000401400010024000080140000021101A
:1009CC000000311000003210000011100000221045
:1009DC000AB1016170470904FBE7C3680B4214BFFD
:1009EC0041610161704700002DE9F341054608B9EA
:1009FC0001203CE00368DB0710D42B689F075DD413
:100A0C002B68190700F194802B685A0700F1BE80FF
:100A1C00E869002840F02C81002028E08F4C6368A6
:100A2C0003F00C03042B07D0636803F00C03082BB2
:100A3C0009D16368DE0306D523689C03DDD56B689A
:100A4C00002BDAD1D4E76B68B3F5803F12D1236861
:100A5C0043F480332360FFF7B5FB06462368980305
:100A6C00CBD4FFF7AFFB801B6428F7D9032002B06F
:100A7C00BDE8F0819BB9236823F48033236023689D
:100A8C0023F480232360FFF79DFB0646236899031C
:100A9C00B3D5FFF797FB801B6428F7D9E6E7B3F5CE
:100AAC00A02F236803D143F480232360CFE723F4E2
:100ABC0080332360236823F48023CBE7674C63687F
:100ACC0013F00C0F07D0636803F00C03082B10D144
:100ADC006368DA030DD423689B0702D52B69012BBD
:100AEC0086D123686A6923F0F80343EAC2032360C2
:100AFC0086E72A695A4B6AB101221A60FFF762FB3A
:100B0C00064623689F07ECD4FFF75CFB801B02288A
:100B1C00F7D9ABE71A60FFF755FB06462368980731
:100B2C007FF56EAFFFF74EFB801B0228F6D99DE7D1
:100B3C00AA694A4C4B4BDAB101221A60FFF742FB0F
:100B4C000646636A9B070DD54FF4FA52464B1B6859
:100B5C00B3FBF2F3019300BF019B5A1E0192002BD1
:100B6C00F9D151E7FFF72EFB801B0228E9D97DE76D
:100B7C001A60FFF727FB0646636A9F077FF544AFB1
:100B8C00FFF720FB801B0228F6D96FE7334CE36993
:100B9C00D80024D40127E36943F08053E361E3696F
:100BAC0003F080530093009B304E3368D90518D561
:100BBC00EB68012B26D1236A43F001032362FFF774
:100BCC0001FB41F288368046236A9B073FD5002FF4
:100BDC003FF41EAFE36923F08053E36118E700276D
:100BEC00E2E7336843F480733360FFF7EBFA804637
:100BFC003368DA05DCD4FFF7E5FAA0EB08006428CB
:100C0C00F6D933E7ABB9236A41F2883823F00103F4
:100C1C002362236A23F004032362FFF7D3FA064608
:100C2C00236A9807D3D5FFF7CDFA801B4045F7D937
:100C3C001CE7052B236A03D143F004032362BAE7B4
:100C4C0023F001032362236A23F00403B6E7FFF7C2
:100C5C00B9FAA0EB0800B042B6D907E70010024081
:100C6C000000424280044242080000200070004014
:100C7C002A4B5A681C4602F00C02082A3DD000236D
:100C8C00274E022833602BD1FFF79CFA07462368C6
:100C9C0099011FD42B6AB3F5803F05D16268A9680E
:100CAC0022F400320A436260696A62680B4322F4E0
:100CBC0074121343636001233360FFF783FA054614
:100CCC0023689A013FF5A8AEFFF77CFA401B022877
:100CDC00F6D9CBE6FFF776FAC01B0228D7D9C5E6C2
:100CEC00FFF770FA054623689B017FF595AEFFF779
:100CFC0069FA401B0228F6D9B8E601283FF4B7AED2
:100D0C0058682B6A00F480329A427FF471AE6B6A99
:100D1C0000F47010C01A18BF0120A8E600100240A1
:100D2C006000424230B5194B87B002AC03F110059C
:100D3C00224618685968083303C2AB421446F7D1EF
:100D4C0001238DF80430022311498DF805304B68CE
:100D5C0003F00C02082A17D1C3F3834206A80244FD
:100D6C00DB0312F8102C0CD54B680A48C3F3404334
:100D7C00504306AA134413F8143CB0FBF3F007B02D
:100D8C0030BD05485043FAE70248F8E790350008B3
:100D9C000010024000127A0000093D002DE9F041DC
:100DAC000D46044610B90120BDE8F081454A136890
:100DBC0003F007038B4229D321688E0731D4CA076D
:100DCC0044D4404A136803F007039D4267D322685A
:100DDC003D4D12F0040F6ED1130706D56B682269D6
:100DEC0023F4605343EAC2036B60FFF79BFF6B680D
:100DFC00364AC3F30313D35CD840354B1860354BDC
:100E0C001868FFF79DF90020BDE8F081136823F006
:100E1C0007030B431360136803F007039942C2D115
:100E2C00CAE7294B11F0040F1EBF5A6842F4E06266
:100E3C005A60080742BF5A6842F460525A605A68B6
:100E4C00A06822F0F00202435A60B8E762681E4EB6
:100E5C00012A33681BD113F4003FA4D0736841F20C
:100E6C00883823F0030313437360FFF7ABF907468D
:100E7C007368626803F00C03B3EB820FA1D0FFF729
:100E8C00A1F9C01B4045F3D90320BDE8F081022A2B
:100E9C0002D113F0007FE0E713F0020FDDE71368D7
:100EAC0023F007032B431360136803F007039D42E1
:100EBC007FF479AF8BE76B68E16823F4E0630B4355
:100ECC006B6089E70020024000100240BF3500082B
:100EDC000800002004000020F8B504460E46154614
:100EEC001F4621688A6836EA020301D00020F8BD4B
:100EFC006B1CF7D0FFF766F9C01B8542F1D823684D
:100F0C005A6822F0E0025A606268B2F5827F0AD118
:100F1C00A268B2F5004F02D0B2F5806F03D11A6807
:100F2C0022F040021A60A26AB2F5005F07D11A687B
:100F3C0022F400521A601A6842F400521A6001231B
:100F4C0084F851300023032084F85030F8BD10B5DC
:100F5C0013460A4680210446FFF7BEFF20B103204A
:100F6C00636D43F02003636510BD10B50446002883
:100F7C0034D00023836290F8513003F0FF021BB988
:100F8C0080F8502000F07AFF0223226884F8513058
:100F9C001368A06823F0400313606368A1690343DE
:100FAC00E06803432069034360690343E06903433A
:100FBC00206A0343A06A034301F40070090C034345
:100FCC0001F0040113605160D369002023F4006325
:100FDC00D3610123606584F8513010BD012010BD30
:100FEC002DE9F3411E4690F850300446012B0D4676
:100FFC00904600F09C80012380F85030FFF7E2F817
:10100C00074694F85100C0B2012840F08E80002DA4
:10101C005ED0B8F1000F5BD00323002084F8513070
:10102C00A3686065A063A4F83680A087E08760643D
:10103C0020642068B3F5004F08BF0368256308BF20
:10104C0043F48043A4F8348008BF036003685B0654
:10105C005EBF036843F040030360E368B3F5006FC1
:10106C0063683ED113B1B8F1010F07D135F8023BDB
:10107C00C3602563E38E013B9BB2E386E38E9BB298
:10108C00A3B93A4631462046FFF761FF002849D103
:10109C00A36833B901932368DA6801929B680193C2
:1010AC00019B606D003018BF012011E0226893682D
:1010BC00980705D5236B33F8021BD1602363D9E75E
:1010CC00FFF780F8C01BB042D8D3711CD6D00320D8
:1010DC00012384F85130002384F8503002B0BDE86D
:1010EC00F08113B1B8F1010F08D12B780373236B86
:1010FC0001332363E38E013B9BB2E386E38E9BB209
:10110C00002BBED023689A68920703D5226B127805
:10111C001A73ECE7FFF756F8C01B8642EED8731C27
:10112C00ECD0D4E720236365B2E70220D0E702209D
:10113C00D4E72DE9F7431E4690F850300446012BB6
:10114C000D4691460A9F00F0E280012380F8503052
:10115C00FFF738F894F851308046DBB2012B616808
:10116C000AD0B1F5827F40F0D080A068002840F012
:10117C00CC80042B40F0C980002D00F0C480B9F164
:10118C00000F00F0C080002E00F0BD8094F85130AC
:10119C00C4F83890042B1CBF052384F8513000236D
:1011AC006365236463642368E687E6861A68A6870A
:1011BC00500658BF1A68256358BF42F04002A686F5
:1011CC0058BF1A60E268B2F5006F58D109B1012E10
:1011DC0007D135F8022BDA60E38E2563013B9BB215
:1011EC00E3860125E38E9BB2ABB9E38F9BB293B937
:1011FC00424639462046FFF7AAFE002840F081807F
:10120C00A368002B32D123680190DA6801929B68A5
:10121C000193019B2AE02268936899070DD5E38E10
:10122C009BB253B14DB10025236B33F8021BD16037
:10123C002363E38E013B9BB2E3869368DB070CD5FB
:10124C00E38F9BB24BB10125D268A36B23F8022B21
:10125C00A363E38F013B9BB2E387FEF7B3FFA0EBE5
:10126C0008008742BED87E1CBCD00320012384F822
:10127C005130002384F8503003B0BDE8F08309B13D
:10128C00012E08D12A781A73236B01332363E38E62
:10129C00013B9BB2E3860125E38E9BB21BB9E38F26
:1012AC009BB2002BA4D02268936898070ED5E38ECE
:1012BC009BB25BB155B10025236B1B781373236B69
:1012CC0001332363E38E013B9BB2E3862268936870
:1012DC00D9070DD5E38F9BB253B10125D268A36B0F
:1012EC001A70A36B0133A363E38F013B9BB2E387BB
:1012FC00FEF768FFA0EB08008742CDD87B1CCBD053
:10130C00B3E7202363650120B0E70220AEE702209B
:10131C00B2E748B143683BB183682BB1C068B0FAFF
:10132C0080F04009404270474FF0FF30704770B575
:10133C00054618461C46FFF7ECFF70B9A3786668A3
:10134C00012B18BF45F08005134660780A462946E4
:10135C00B047002818BF6FF0030070BD0A2A28BFE1
:10136C000A22F0B5054687B018461E461446FFF70C
:10137C00D0FF002836D1002D34D0002932D0002ADD
:10138C0033D00B788DF80430B378012B0DD1012CB0
:10139C0001AA16D12346B46829787078A047002892
:1013AC0018BF6FF0030007B0F0BD631EDBB26A1EFE
:1013BC002B44507800F07F0002F8010F9A42F8D1CC
:1013CC00E5E70123EF5C02EB430000F8017CC85C0D
:1013DC0002F813000133D8B2A042F3D36400013CED
:1013EC00A3B2D8E74FF0FF30DDE76FF00200DAE789
:1013FC0013B5F2230C4600F0070002A98DF8073054
:10140C0001F8030D234601220DF10700FFF7A6FF9B
:10141C0088B9F420234601220DF106018DF807004E
:10142C00FFF785FF38B9234601220DF106010DF1B6
:10143C000700FFF793FF02B010BD73B50646F4200A
:10144C000D46144613460DF1070101228DF80600D6
:10145C00FFF76DFFF8B9F2070AD52B789DF8072036
:10146C009B0003F01C0322F01C0213438DF8073081
:10147C00B30708D59DF807306A7803F01F0343EAD9
:10148C0042138DF80730234601220DF107010DF1AF
:10149C000600FFF763FF02B070BD73B50646F5207A
:1014AC000D46144613460DF1070101228DF8060076
:1014BC00FFF73DFFF8B932070AD5EB789DF8072006
:1014CC009B0003F01C0322F01C0213438DF8073021
:1014DC00F30608D59DF807302A7903F01F0343EA79
:1014EC0042138DF80730234601220DF107010DF14F
:1014FC000600FFF733FF02B070BD10B50446084676
:10150C00FFF707FF48B90B4601222146F420FFF7ED
:10151C000EFF237803F00303237010BDE02337B5CF
:10152C008DF8053000238DF80630B62305468DF86E
:10153C000730FFF7EEFE08BB2B4601220DF1070129
:10154C000DF10500FFF70AFFC0B90624EB68022075
:10155C0098472B4601220DF10601F320FFF7E7FE19
:10156C009DF8063028B9013C14F0FF0401D0DA07CD
:10157C00ECD413F0010F18BF6FF0050003B030BDB1
:10158C00002330B589B004468DF80330FFF7C1FE57
:10159C00002840F0A1800525234601220DF103010E
:1015AC00D020FFF7C4FE002840F098809DF803304F
:1015BC00602B40F0938023702046FFF7AFFF00288C
:1015CC0040F08A8001461A2201A801F0A6FB2346AE
:1015DC001A2201A98820FFF7AAFE00287CD19DF8C9
:1015EC0005209DF8043001A943EA022323829DF8CB
:1015FC0007209DF80630E12043EA022363829DF820
:10160C0009209DF8083043EA0223A3829DF80B20A1
:10161C009DF80A3043EA0223E3829DF80D209DF8E1
:10162C000C3043EA022323839DF80F209DF80E30E3
:10163C0043EA022363839DF811209DF8103043EA9E
:10164C000223A3839DF813209DF8123043EA022352
:10165C00E3839DF815209DF8143043EA022323847C
:10166C009DF817209DF8163043EA022363849DF8F9
:10167C0019209DF8183043EA0223A3849DF81B20FF
:10168C009DF81A3043EA0223E3849DF81D300722AB
:10169C0084F828302346FFF74AFEE8B99DF8052068
:1016AC009DF804309DF9071043EA022363859DF8E9
:1016BC00063084F82C309DF8083003F00F0242EA13
:1016CC000112E2859DF909201B0943EA02132386C6
:1016DC009DF80A3084F8323009B030BDE36801203F
:1016EC00013D984715F0FF057FF456AF6FF00100F0
:1016FC00F2E71FB50422044603460DEB0201F2206B
:10170C00FFF715FE58BB9DF80430204603F0070385
:10171C008DF80A309DF80630C3F382025B098DF810
:10172C0009309DF807308DF80820C3F382025B095D
:10173C008DF80B208DF80C30FFF7F0FE78B92146B0
:10174C009DF80A00FFF754FE224602A91F20FFF75E
:10175C0074FE20B9224602A91F20FFF79EFE04B09A
:10176C0010BD73B5064608460C46FFF7D2FD05467C
:10177C0068B90DF10700FFF7C0FE054638B99DF8B2
:10178C0007303BB971071CD116F0180F1DD1284634
:10179C0002B070BD2046FFF7ACFF0028F2D0054622
:1017AC00F5E7214694F83A00FFF722FEB20705D080
:1017BC00224604F138013046FFF73FFE0028EED1F7
:1017CC00E2E77307EDD40120F0E7224604F138017B
:1017DC003046FFF762FEE2E737B5054608460C4691
:1017EC00FFF797FD40BB0DF10500FFF786FE18BB18
:1017FC009DF80530DBB9F420234601220DF10701D9
:10180C008DF80600FFF793FDB0B99DF8070005F0C1
:10181C00030520F0030028438DF80700234601221E
:10182C000DF107010DF10600FFF798FD04E02046CD
:10183C00FFF75FFF0028DED003B030BDFEF7C8BC59
:10184C002DE9F04788465C1CE4B21E46E31D23F0EC
:10185C00070382B002AFADEB030D02AD9146ADEBC9
:10186C00030D22460021284601F057FA85F8008026
:10187C00DFF84480002240461021FFF7A9F83223FC
:10188C000DF1080A00935246234629460948FFF7F2
:10189C0050FC0122044610214046FFF799F83246CD
:1018AC000DF10901484601F02DFA60B2BD46BDE8C4
:1018BC00F08700BF5802002000080140B0B55C1C46
:1018CC00E4B2E01D20F0070000AFADEB000D1546B3
:1018DC00684600F8011B29460B4D1A4601F012FA16
:1018EC00284600221021FFF773F83223224669465E
:1018FC000648FFF775FB0122044610212846FFF726
:10190C0067F860B2BD46B0BD000801405802002027
:10191C00292908B510460BD003D8282907D0012057
:10192C0008BD4A2907D04B29F9D1012104E0012037
:10193C00FEF74EFCF3E702210148FFF749F8EEE70A
:10194C00000C0140143908B518460C291BD8DFE8E7
:10195C0001F00D1A1A0714181A1A1A1A1A1A0F006B
:10196C00014642F210730948FFF73AFB012008BD0B
:10197C0002210748FFF72CF8F8E700220821054858
:10198C00F8E70122FAE7002008BD00BF580200204A
:10199C00000C014000080140002310B5114C63708D
:1019AC00A370114B20466360104BA360104BE36097
:1019BC00FFF7E6FD052284F838200222012384F883
:1019CC003920042221461F2084F83A3084F83B2029
:1019DC0084F83C30FFF7C5FE2146BDE810400320DB
:1019EC00FFF7FABECC0100204D180008C9180008FA
:1019FC004918000810B590B02822002106A801F063
:101A0C008CF90021142201A801F087F94FF48033DE
:101A1C000122022407930E934FF4E01306A80692BA
:101A2C000A920F930D94FEF7DFFF0F234FF48062A1
:101A3C0001930023214601A8029403930492059379
:101A4C00FFF7ACF910B010BD2DE9F0474FF01008BE
:101A5C009EB0FEF799FBFFF7CDFF4246002105A88B
:101A6C0001F05BF99C4B4FF400519A699B4842EA98
:101A7C0008029A619A69002402EA08020192019A0A
:101A8C009A69022742F020029A619A69012602F0B3
:101A9C0020020292029A9A694FF0030942F0040262
:101AAC009A619A698E4D02F004020392039A9A6924
:101ABC0042F008029A619B69002203F00803049328
:101ACC00049BFEF785FF002218218648FEF780FF55
:101ADC00002203218448FEF77BFF4FF4005305934B
:101AEC00112305A97D48069307940897FEF78EFEEF
:101AFC00182305A97B480593069607940897FEF7CB
:101B0C0085FE05A9784806960794CDF81490089799
:101B1C00FEF77CFE0923754A284685E80C004FF435
:101B2C00A023AC60EC602B616C612C766C76AC768F
:101B3C00EC762C776C77FEF75DFB4FF482736C4878
:101B4C006C49846080E80A004FF4007383610A23B7
:101B5C00C46004614461046244628462C362C0F87C
:101B6C001C80FFF702FA0E23634928464B624C6136
:101B7C008C61CE610C604C608C60CC600C610E6230
:101B8C00FEF7B3FB2846FEF71CFC49462846FEF739
:101B9C00B9FC2122594B082583E844000422DC605F
:101BAC009C601D611C75564B4146DA7005221A71FA
:101BBC0006225A7107224B489A7132461E70DD710B
:101BCC005F7083F80290FEF703FFFFF7E5FE3246E5
:101BDC0029464448FEF7FCFE4A4B4B4A4B494C48BD
:101BEC0000F048FA4A4800F0F9FF2146484800F056
:101BFC00FDFF474800F00CFA464E454C464D314629
:101C0C00204600F0BBFC2B461E220521204600F08E
:101C1C007BFC204600F009FA0028F0D13F493C48F3
:101C2C0000F0ACFCDFF8B490394C3D4E4FF47A70B8
:101C3C00FEF7CEFA4FF400514846FEF7CEFE204692
:101C4C0000F0E6F9DFF8E0806425DFF8E0A041461B
:101C5C00DAF80030334F93FBF5F205A805FB12338D
:101C6C0012B201F063F805AB14220021204600F0FB
:101C7C004BFC3A683146C2F3090305A8920A01F0FD
:101C8C0055F805AB2D220021204600F03DFCDAF87A
:101C9C000030414693FBF5F205A805FB123312B256
:101CAC0001F044F805AB50220021204600F02CFC3A
:101CBC003A683146C2F3090305A8920A01F036F8D6
:101CCC0005AB69220021204600F01EFC204600F0E6
:101CDC00ACF90028B8D1A9E700100240001001406F
:101CEC001802002000080140000C01400064004074
:101CFC005802002000300140A4010020B80200204E
:101D0C004C0200201D19000851190008CC45000890
:101D1C008C0000207B3D0008A0350008CF35000862
:101D2C00B635000848020020AD35000840020020FE
:101D3C004FF400510148FEF750BE00BF00100140A7
:101D4C0038B5124C124D23462A4600211148FEF795
:101D5C0063FB4FF400511048FEF73FFEA378617807
:101D6C0022781B0403EB01231344E27803EB026398
:101D7C002A68F02A02D1094A136038BDF12A01D130
:101D8C00074AF9E7F22AF8D1064AF5E7B002002033
:101D9C00D002002018020020001001404402002054
:101DAC0040020020480200200E4B82B09A6942F09B
:101DBC0001029A619A6902F001020092009ADA69B2
:101DCC0042F08052DA61DB69074A03F080530193D9
:101DDC00019B536823F0E06343F00073536002B03F
:101DEC00704700BF001002400000014010B50446CF
:101DFC0086B01022002102A800F08FFF22681D4B34
:101E0C009A4235D103F5D633DA6902A942F0007251
:101E1C00DA61DA69184802F000720092009A9A6945
:101E2C0042F004029A619B6903F004030193019B45
:101E3C004FF400630293FEF7E9FC4FF480530293D6
:101E4C0002230393032302A90B480593FEF7DEFC40
:101E5C00002213201146FEF781FC1320FEF7B2FC82
:101E6C00002214201146FEF779FC1420FEF7AAFC80
:101E7C0006B010BD006400400008014010B50446D7
:101E8C0086B01022002102A800F047FF2268164BF2
:101E9C009A4226D103F560439A6902A942F4805212
:101EAC009A619A69114802F480520092009A9A69D8
:101EBC0042F004029A619B6903F004030193019BB5
:101ECC00A02302930223039303230593FEF79EFCA6
:101EDC0040230293002302A9044803930493FEF7C2
:101EEC0095FC06B010BD00BF003001400008014059
:101EFC007047FEE7FEE7FEE7FEE770477047704766
:101F0C00FEF754B90148FEF719BB00BF18020020B8
:101F1C00FFF7F8BF08B50A4B0246196809B9094919
:101F2C0019606946186802448A4206D900F0C0FE5E
:101F3C000C2303604FF0FF3008BD1A6008BD00BFD2
:101F4C0014010020F00200200F4B1A6842F001022D
:101F5C001A6059680D4A0A405A601A6822F0847255
:101F6C0022F480321A601A6822F480221A605A68AD
:101F7C0022F4FE025A604FF41F029A604FF0006286
:101F8C00034B9A60704700BF001002400000FFF83E
:101F9C0000ED00E02DE9F74305460026036890F8B4
:101FAC003C9090F83D7093F811802B68B1B21B7C7B
:101FBC00F4B2D8004143A86B89B201443A190134F8
:101FCC000091D2B200212846E4B200F0EEFDA1450A
:101FDC0004D90136BB19DBB29845E6D803B0BDE88D
:101FEC00F083036800211A7C90F83C30806BDB0096
:101FFC005A4300F092BE10B50446436B80F83D1076
:10200C001B689847636B2046BDE810405B68184717
:10201C0010B590F8873004460BB1FFF7E2FF20466D
:10202C00BDE810400021FFF7E6BF38B50446FFF7C6
:10203C00B1FF94F83D5094F83C1023680D445B7C40
:10204C00EDB2AB4204D8204600F0D8FD002038BDDC
:10205C0094F8873013B12046FFF7C3FF204629467A
:10206C00FFF7C9FF012038BD0123037000487047FA
:10207C001801002030B585B00D4600930949134670
:10208C00094A044600F0E0FD0DF10F00FFF7ECFFEC
:10209C009DF80F2001460095044B204600F004FCEF
:1020AC0005B030BD152B0008F3290008DD2600080B
:1020BC004218435C507800EB032080B27047012B30
:1020CC0007D003D3022B06D0401A00E01044C0B254
:1020DC0070470844FBE7801AF9E7012B07D003D3BC
:1020EC00022B06D0104400E00844C0B27047801A9E
:1020FC00FBE7401AF9E70020704738B50B780D461E
:10210C0003704B78044643708B788370CB78C37024
:10211C000B7903714B7943718B798371CB79C371D3
:10212C000B7A03724B7A43728B7A8372CB7AC372BB
:10213C000B7B03734B7B43738B7B8373CB7BC373A3
:10214C000B7C112103742846FFF7B2FF1321608228
:10215C002846FFF7ADFF1521A0822846FFF7A8FF00
:10216C00E08238BD70B5847A066862183378D2B2D2
:10217C00072A43FA04F506D8EBB282720120884094
:10218C000138184070BD731C03607378C4F10804E7
:10219C00E4B2A3402B43083ADBB2D2B2EDE738B538
:1021AC00002300F15805044680F86230816590F8F0
:1021BC006C102846FFF7D6FF94F86D1084F8600079
:1021CC002846FFF7CFFF94F8863084F8610084F836
:1021DC006430B3FA83F35B0984F8653038BD10B50D
:1021EC00FFF7C0FF01234C1EE4B2A340C01A40B25B
:1021FC0010BD2DE9F04F04460E4687B090F85E8076
:10220C0090F85F70059294F860503346A5EB080582
:10221C00EDB2AE4228BF2B4694F86690029394F828
:10222C005D304FFA88FA4FFA87FB04935A464B46B7
:10223C00514694F85C00FFF750FF4B4603905A460A
:10224C0051460498FFF73BFF059B02469BB194F85F
:10225C00643084F88630CDF80090029B03992046B8
:10226C0000F0A7F9AE420DD3761B0137F6B2FFB2E0
:10227C004FF00008C7E794F86330002BF2D194F8C4
:10228C006530E6E7464484F85E6084F85FB007B0DA
:10229C00BDE8F08F2DE9F04F044685B000F15809E8
:1022AC00FFF77DFF94F9613094F86E104846029365
:1022BC00FFF795FF94F86F1083464846FFF78FFFA2
:1022CC0094F8701080464846FFF789FF94F96060D7
:1022DC000390002E57DD9DF8085094F866A0A84492
:1022EC00C8F100084FFA88F853464246594694F80C
:1022FC005C00FFF7F2FE534684F85C00074642464A
:10230C0094F85D005946FFF7DAFE84F85D00BAF1E7
:10231C00030F5AD8DFE80AF0023B4450BB190544BE
:10232C00DBB2E9B2009102463946204600F0B8F91A
:10233C0048B3002384F85E3084F85F3094F86A1058
:10234C004846FFF70FFF94F86B1006464846FFF718
:10235C0009FF0546002231462046FFF74AFF294671
:10236C0020460122FFF745FF01214846FFF7FAFE00
:10237C000028EFD194F95F30029A9342DEDB94F897
:10238C00643084F88630039805B0BDE8F08FC5F151
:10239C0001057A1906440137FBB2F1B2D7B2C1E795
:1023AC00C6F10106C5F10105411CBA1905440137F6
:1023BC00FBB2C9B2E8B2F1E7C6F10106411CEB1958
:1023CC000644DBB2C9B2F0B2ACE701463B46A9E722
:1023DC00036DFF2970B503F117030D4612D8602960
:1023EC0009D9B0F87C201344587848B31A78AA421B
:1023FC0006D1981C70BD4029F6D9B0F87A20F2E7C6
:10240C000344F1E7B0F87E401C44264600213046D8
:10241C00FFF74EFE022104443046FFF749FE854289
:10242C0006F10406F2D82378607850EA032306D02C
:10243C009D4201D1E01C70BDA3781C44F3E7184603
:10244C0070BDF8B51F4690F8663004460E4615462A
:10245C00032B07D8DFE803F002151A1E436D9847CB
:10246C000544EDB284F85C6084F85D503946204632
:10247C00FFF7AEFF20B101462046FFF70BFFC0B2BD
:10248C00F8BD436D9847361AF6B2EBE7436D9847A3
:10249C002D1AE6E7436D98470644F5E72DE9F0471A
:1024AC001E4607460C4615464FF0000A00F024FA6B
:1024BC004FF6FF784FF6FE79013E7B6816F8011F48
:1024CC0038469847404503461BD04845F5D02A4628
:1024DC0021463846FFF7B5FF97F86630032B05D831
:1024EC00DFE803F002080B0D0444E4B250445FFA39
:1024FC0080FAE2E70544EDB2F8E7241AF5E72D1A65
:10250C00F9E75046BDE8F08710B4024C446010BCAB
:10251C00FFF7C4BFF5280008036D10B533B390F96D
:10252C00754090F9761090F8813080F8824080F8F0
:10253C008310DBB1012B0CD190F977309C42B8BFE2
:10254C0080F8823090F9783099420FDD80F8833032
:10255C0010BD90F9742090F9723013449C42B8BFAE
:10256C0080F882309142C8BF80F8832010BD0000F3
:10257C00014B4365704700BF03210008026D10B585
:10258C008A42044608D021656830FFF7B6FD204624
:10259C00BDE81040FFF7C0BF10BD70B490F84040CC
:1025AC009DF80C60121B046B0396A44670BCD2B24F
:1025BC00604770B490F880409DF80C50002C3AD0D5
:1025CC00002B38D0012B04D9022D2BD10131C91A83
:1025DC00C9B215F0010530D190F8474094422AD881
:1025EC0090F84840944226D90B44DBB28B4290F8C9
:1025FC00456090F846401CD28C4219D9631EDBB260
:10260C009E4218D2B14238BF31469C4294BFC1EBB6
:10261C000404C1EB0304E3B2446B0395A468A44621
:10262C0070BC6047032D02BF0132D21AD2B2D0E780
:10263C0031468C42E4D870BC704790F845408C42CF
:10264C00F9D890F846408C42F5D91344DBB293424A
:10265C0090F8476090F8484010D294420DD9631E10
:10266C00DBB29E42E7D2B24238BF32469C4294BFA4
:10267C00C2EB0404C2EB0304CDE732469442DAD930
:10268C00EFE78A4206D2834208D89A4294BF0020D0
:10269C00012070478342F8D8002070470120704712
:1026AC0070B504460D461E4690F848109DF8103043
:1026BC0090F84700FFF7E5FF48B133462A4694F8F7
:1026CC00461094F84500BDE87040FFF7DABF70BDC6
:1026DC00F0B5012490F8865002F00706B440012DA5
:1026EC009DF81470E4B217D8254617D002F0F80EF6
:1026FC00026892F810C0826B0CFB0E1111447FB96A
:10270C00013BDBB201330B440A782A43624001F8E7
:10271C00012B9942F8D1F0BD0025E7E70024E5E74D
:10272C000A7801362A436240013B16F007060A700C
:10273C00DBB20CD190F83E20114490F88620012A8F
:10274C000AD80BD001242546002BE9D1F0BD6D0031
:10275C006400EDB2E4B2F7E70124F5E71546F3E7C0
:10276C0070B590F83C400168E30080F83F300A7C7B
:10277C0090F83D501F2A28BF1F22EB00DBB2D2007D
:10278C0080F8403080F83E204A7C66199642C4BFDF
:10279C00541BE4B280F8413003EBC40380F84230A0
:1027AC00F02380F843308B8AF02B98BF80F84330AD
:1027BC00CB8A80F8443070BD10B5FFF7D1FF0368A9
:1027CC009A8A80F84420DB8A80F8433010BDFFF7EA
:1027DC00F3BFD24330B490F844409DF808501444F1
:1027EC006A1CD2B2022AE4B201BFC3F10102A418DE
:1027FC000022E4B202920A46214630BCFFF7CDBE5D
:10280C0037B590F84C5090F84A3090F84B2090F82F
:10281C00491000950446FFF743FF18B984F880006F
:10282C0003B030BD012394F8452084F8803094F82F
:10283C0049309A4238BF84F8453094F8462094F8D1
:10284C004A309A4288BF84F8463094F8472094F86E
:10285C004B309A4238BF84F8473094F8482094F8AB
:10286C004C309A4288BF84F84830D9E790F8412020
:10287C0080F8452090F8422080F84620002280F80D
:10288C00472090F8442080F84820FFF7B9BF002279
:10289C0080F8492080F84B20FF22436B80F84A20B7
:1028AC0080F84C205B68184770B500250363012342
:1028BC000446049E80F83C2080F83D5080F863501C
:1028CC0080F8855080F8863080F8873081633368D3
:1028DC000565466398472046FFF7D9FF2046FFF76A
:1028EC0047FE84F8665070BD19B10A2901D088B230
:1028FC0070474FF6FF707047002380F82730704701
:10290C0010B404690A46A4460023202110BC604779
:10291C0010B404691346A4460A4610BC172160473C
:10292C0007B502AA02F8011D0121FFF7F1FF03B060
:10293C005DF804FB10B4C4680A46A44600231521B4
:10294C0010BC604710B4C4680A46A4460023162184
:10295C0010BC604710B4C4681346A4460A4610BCA9
:10296C0017216047002310B4C4681A46A4461821E6
:10297C0010BC6047002310B4C4681A46A446192141
:10298C0010BC604773B505460C462178172919D041
:10299C0003D815290DD202B070BD19291CD9FE29F6
:1029AC00F9D16278292128468DF8072000F02EF9FC
:1029BC0006E06278EE688DF8072000232846B047C1
:1029CC000234E2E763780DF10702012128468DF805
:1029DC000730FFF7BFFFF3E70023EE681A462846DF
:1029EC000134B047D1E72DE9F0411546A1F11402AD
:1029FC0004460E469846052A1AD8DFE802F0100362
:102A0C00030D10100021FFF77BFF29462046FFF72E
:102A1C0087FF0120BDE8F0810121FFF771FF2769D5
:102A2C0043462A4631462046BC46BDE8F041604745
:102A3C000020BDE8F08100000B39F8B504461546BE
:102A4C001F46042955D8DFE801F003540C1B29005C
:102A5C002AB929492046FFF795FF0120F8BD2749DF
:102A6C00F8E73AB92649FFF78DFF23689B7C84F879
:102A7C002230F2E72349FFF785FF2368DB7CF6E77A
:102A8C00FFF770FF81212046FFF754FF29462046AF
:102A9C00FFF758FF2046FFF76DFFDEE7FFF762FFF9
:102AAC007B7994F82260402106EBC30606F0FF0602
:102ABC002046FFF73FFF310941F010012046FFF798
:102ACC0039FF06F00F012046FFF73CFFB97920468D
:102ADC0041F0B001FFF736FF39793A68C90001F0CF
:102AEC00F8012046013DFFF735FF15F0FF05F3D146
:102AFC00D0E70020F8BD00BF1B46000820460008A8
:102B0C00D8450008DF45000838B504460D46FFF7E8
:102B1C0093FF50B9092D0AD00A2D07D1204600F099
:102B2C0014F805492046FFF72DFF012038BD034955
:102B3C00204600F005F8F8E7E645000828460008AE
:102B4C0001608B7C80F82230704738B500234569D2
:102B5C001A4628210446A8470023E5681A46142182
:102B6C002046A847204601224B2100F04FF823684D
:102B7C0020461A79292100F049F8204600224B21E1
:102B8C0000F044F8236820461A79292100F03EF819
:102B9C00204601224B2100F039F8236820465A794F
:102BAC002921BDE8384000F031B813B58DF8062066
:102BBC00049A8DF8043002AB8DF8051043F8082DFB
:102BCC00846801220F21A04702B010BD002310B46D
:102BDC0084681A46A446092110BC6047002310B42F
:102BEC0084681A46A4460A2110BC604710B4846855
:102BFC000A46A44600230B2110BC6047002310B4E6
:102C0C0084681A46A446102110BC604710B444696D
:102C1C000023A44610BC60470020704700230360CB
:102C2C0080F8233080F8263080F827308361FF232A
:102C3C00044A80F824308260C2600261426180F8EC
:102C4C0029307047252C0008F8B5069D17461E46FE
:102C5C00FFF7E4FFC760066145618160BDE8F8409D
:102C6C00FFF7B4BF002103E00B4B5B58435004311A
:102C7C000A480B4B42189A42F6D30A4A02E0002348
:102C8C0042F8043B084B9A42F9D3FFF75DF900F088
:102C9C0015F8FEF7D9FE7047DC460008000000204E
:102CAC007000002070000020F0020020FEE7000001
:102CBC00014B1868704700BF0C00002070B5002550
:102CCC000C4E0D4CA41BA410A54209D100F04EFCD7
:102CDC0000250A4E0A4CA41BA410A54205D170BDB8
:102CEC0056F8253098470135EEE756F825309847C9
:102CFC000135F2E7D4460008D4460008D446000853
:102D0C00D846000810B5431E0A44914200D110BDAC
:102D1C0011F8014B03F8014FF7E7034602449342C5
:102D2C0000D1704703F8011BF9E700000EB44FF413
:102D3C00027100B59CB0ADF814106FF00041049115
:102D4C0007914FF6FF711DAB02900690084853F89F
:102D5C00042BADF81610006802A9019300F0C4F81A
:102D6C000022029B1A701CB05DF804EB03B0704794
:102D7C000C00002070B5CD1C25F0030508350C2D7A
:102D8C0038BF0C25002D064601DBA94203D90C23C4
:102D9C003360002070BD00F06BFB234A14682146A1
:102DAC0091B9224C23681BB9304600F029FB2060F6
:102DBC002946304600F024FB431C26D10C23304618
:102DCC00336000F056FBE4E70B685B1B1AD40B2B4B
:102DDC000FD90B60CC18CD50304600F04AFB04F1F3
:102DEC000B00231D20F00700C31A1BD05A42E250DF
:102DFC0070BD8C420BBF63684B681360636018BF77
:102E0C000C46E9E70C464968CAE7C41C24F00304E5
:102E1C00A04205D0211A304600F0F2FA0130CDD094
:102E2C002560D9E770BD00BF980100209C010020EF
:102E3C002DE9F0478E6882469E420C469146984694
:102E4C0035D88A8912F4906F31D00223256809692C
:102E5C006F1A656905EB450595FBF3F508F1010360
:102E6C003B449D4238BF1D46530531D52946FFF7DB
:102E7C0081FF064650B90C23CAF80030A3894FF0E5
:102E8C00FF3043F04003A381BDE8F0873A46216947
:102E9C00FFF738FFA38923F4906343F08003A381E9
:102EAC0026613E44266046466561ED1BA56046459D
:102EBC0028BF464649463246206800F0BFFAA36850
:102ECC0000209B1BA36023681E442660BDE8F0878E
:102EDC002A4600F01BFB06460028E1D1216950462A
:102EEC0000F0C8FAC7E700002DE9F04F9DB003933E
:102EFC008B8980461C060D4616460FD50B696BB99F
:102F0C004021FFF737FF2860286128B90C23C8F847
:102F1C0000304FF0FF30C4E040236B610023099375
:102F2C0020238DF8293030234FF0010B8DF82A30F7
:102F3C0037463C4614F8013B002B3CD1B7EB060A54
:102F4C000BD05346324629464046FFF771FF0130FD
:102F5C0000F0A280099B534409933B78002B00F0AE
:102F6C009B8000234FF0FF32049307930592069346
:102F7C008DF853301A9305222178504800F050FAFE
:102F8C00671C049BD8B9D90644BF20228DF8532066
:102F9C001A0744BF2B228DF8532022782A2A16D0E8
:102FAC0000210A20079A27463B780134303B092B35
:102FBC0050D9C9B111E0252BC0D02746B9E73F4AFB
:102FCC003C46801A0BFA00F018430490D3E7039A9E
:102FDC00111D12680391002A01DB079204E0524292
:102FEC0043F00203079204933B782E2B0DD17B7890
:102FFC00791C2A2B32D1039B02371A1D1B680392B2
:10300C00002BB8BF4FF0FF3305932D4C03223978BA
:10301C00204600F005FA38B14023001B03FA00F0FB
:10302C00049B0137034304933978062225487E1C00
:10303C008DF8281000F0F4F9002835D0224BFBB99C
:10304C00039B073323F0070308330393099B4B447B
:10305C0009936DE700FB02320121A4E700230A2447
:10306C00184605930F463A780131303A092A03D9AC
:10307C00002BCAD00590C8E704FB00200123F1E720
:10308C0003AB00932A46114B04A94046AFF30080D2
:10309C00B0F1FF3F8146D9D1AB895B063FF539AF23
:1030AC0009981DB0BDE8F08F03AB00932A46074B7F
:1030BC0004A9404600F084F8EAE700BFA0460008E7
:1030CC00A6460008AA460008000000003D2E000895
:1030DC002DE9F04791461F468A680B6906469342D4
:1030EC00B8BF1346C9F8003091F843200C46DDF800
:1030FC00208012B10133C9F800302368990642BF11
:10310C00D9F800300233C9F80030256815F00605EF
:10311C0007D104F1190AE368D9F800209B1A9D42E3
:10312C002ADB94F843302268003318BF012392063F
:10313C002FD404F1430239463046C047013022D027
:10314C002368E56803F00603042B18BF0025D9F8A3
:10315C0000204FF0000908BFAD1AA368226908BF10
:10316C0025EAE5759342C4BF9B1AED181A344D45F8
:10317C001BD10020BDE8F08701235246394630466A
:10318C00C047013003D14FF0FF30BDE8F087013567
:10319C00C1E73020E11881F843005A1C94F845101F
:1031AC002244023382F84310C3E7012322463946F6
:1031BC003046C0470130E6D009F10109D7E70000DD
:1031CC002DE9F04317460A7E85B06E2A98460646CE
:1031DC000C460C9B01F1430E00F0BC801AD8632AFC
:1031EC002ED00AD8002A00F0C880582A00F08A8015
:1031FC0004F1420584F842202AE0642A01D0692AAD
:10320C00F6D121681A6811F0800F23D0111D1960B6
:10321C00136827E0732A00F0B48008D86F2A2AD0EC
:10322C00702AE5D10A6842F020020A6003E0752A90
:10323C0021D0782ADCD178226F4984F8452064E0CB
:10324C001A6801F14205111D1960136884F84230A7
:10325C000123A3E011F0400F02F104011960D7D053
:10326C00B2F90030002B03DA2D225B4284F84320A4
:10327C0062490A2217E02068196810F0800F03D009
:10328C00081D18600B6806E010F0400F01F10400F7
:10329C001860F7D00B886F2A14BF0A2208225749EE
:1032AC00002084F843006568002DA560C0F29C8066
:1032BC00206820F004002060002B3FD1002D40F04E
:1032CC0095807546082A0BD12368DA0708D523693F
:1032DC0062689A42DEBF302305F8013C05F1FF35E8
:1032EC00AEEB05032361CDF800803B4603AA2146D3
:1032FC003046FFF7EDFE013055D14FF0FF3005B0F1
:10330C00BDE8F08381F845203C492268186812F02A
:10331C00800F00F104051D6001D0036802E0550622
:10332C00FBD50388D00744BF42F0200222601BB9B2
:10333C00226822F0200222601022B1E77546B3FB0E
:10334C00F2F002FB1033CB5C05F8013D034600287C
:10335C00F5D1B7E708681A6810F0800F496904D0F6
:10336C00101D18601368196007E010F0400F02F18F
:10337C00040018601368F6D0198000237546236189
:10338C00B1E71A68111D196015680021626828469A
:10339C0000F046F808B1401B6060636823610023AD
:1033AC0084F843309FE723692A4639463046C047A4
:1033BC000130A2D023689B0707D5002504F1190919
:1033CC00E368039A9B1A9D4205DBE068039B9842D5
:1033DC00B8BF184693E701234A4639463046C047E2
:1033EC0001308AD00135EBE7002BA7D10B7804F123
:1033FC00420584F8423065E7C2460008B146000831
:10340C0038B50023054C054608462360FEF782FDBF
:10341C00431C02D1236803B12B6038BDEC020020A1
:10342C0010B5C9B202449042034601D1002010BD30
:10343C001C7801308C42F6D1184610BD884210B56C
:10344C0001EB020303D8421E99420CD110BD9842E5
:10345C00F9D28118D21AD34200D110BD13F8014D04
:10346C0001F8014DF7E711F8014B02F8014FEBE7BA
:10347C007047704738B50546002943D051F8043CD5
:10348C000C1F002BB8BFE418FFF7F2FF1E4A13689D
:10349C00104633B9636014602846BDE83840FFF726
:1034AC00E8BFA3420BD921686218934201BF1A6886
:1034BC005B685218226063600460EDE713465A683B
:1034CC000AB1A242FAD919685818A0420BD1206847
:1034DC000144581882421960DED1106852680144C8
:1034EC0019605A60D8E702D90C232B60D4E7206806
:1034FC0021188A4201BF1168526809182160626064
:10350C005C60C9E738BD00BF98010020F8B50746DC
:10351C0014460E4621B91146BDE8F840FFF72ABC07
:10352C0022B9FFF7A7FF25462846F8BD00F014F88E
:10353C0084420FD921463846FFF71CFC054600286B
:10354C00F2D031462246FFF7DDFB31463846FFF715
:10355C0091FFE9E73546E7E751F8040C0028A0F1A4
:10356C000400BCBF0B58C01870470000F8B500BF72
:10357C00F8BC08BC9E467047F8B500BFF8BC08BC48
:04358C009E467047A0
:1035900002030405060708090A0B0C0D0E0F101094
:1035A00048656C6C6F20776F726C64200054202526
:1035B000642C256C7500482025642C256C75000052
:1035C0000000000000000001020304060708096073
:1035D0000004030505040606121B00FB12FB120083
:1035E00002810504078F20060020C8022109422A13
:1035F00078C20F4408220A66ECCB824548160023A5
:10360000284A26C8CEC4CCC4CCC48C88CC88CCC4B0
:10361000C4C18189C88C88C8C181C59A891991198A
:1036200011991199891900241DEAA6C792A0329B0D
:1036300083889989A1C20DE90807058D6C460E6241
:10364000CC041501251E4926C8C6CCC9C512B13106
:1036500039B131B13139B1311191098A09890891F2
:103660009B0126206926C80E91C90A990939B9B16A
:1036700031A222891989091209929B138A9189839F
:103680001803270A63E87BC2444804002816453221
:10369000D88ACCC4888CC812196D466664466646C2
:1036A000240029134432C88288C888C8887EB14261
:1036B00062422604002A120869DB8E98C881848938
:1036C000C5418C488C0C002B0DE728B98E94928351
:1036D0001B2911002C0862E8770245002D0747A836
:1036E000B9C2032E0742287802012F14482AC89A2B
:1036F000AA29A95552ABA4A6A45649AD120330136A
:103700004926C80ECD05C51115FF5591C9C411092B
:1037100000310B4432C88A8A0312FD3F3217492612
:10372000C80ECD05C51155D1D4B2A96553CBA6C6D7
:103730000E0E08331669E6C7C203B25563625354CE
:1037400065747A21734072150434194926B8CE98ED
:103750009CD8989CD83239119111352207075472A0
:103760009A0035174926C8C2033BED4E0E22668CDF
:10377000E4D45115994C1C910036194926C80ECD38
:103780000589119DBA93838819232A564526134724
:10379000240037174A26C8C20751124213427373D6
:1037A00072EBE4B693DB4E0A00381D4926C80ECDF5
:1037B000058911155591C4C8C4C9C58C11155591F9
:1037C000C4C8C4110900391B4926C80ECD0589118A
:1037D00015AB22938983903B39AA228991892312C0
:1037E000003A0842A9780231013B09626978023146
:1037F00045003C0E66EDC892CCC81221A1ADA402D2
:103800003D0CC8E8C8C20379888303013E1166ED08
:10381000C84294D4D02299899119A128003F1669F1
:1038200026C80ECDC9C411959CD814D53239DD8374
:10383000CAC9004034D1E63697E5C198850D1DC947
:10384000E4C48C89C9498DC80C8D1A1A35346A684C
:10385000D4D0A8A151433341617240314341330F69
:10386000306E7D40782002411E4A26C892E018CF73
:103870008A8C26844484448444460E420E42844406
:103880008444848C06421B4926C882CD4184CC8462
:103890005015A3038A139909A12A8E6A0E2A6C0077
:1038A00043144926C84ACD05C511159DFEAAC86412
:1038B000E288040044114926C8C2C941848C15FF1E
:1038C0008F0E284E0045114A26C8C207817A7873A8
:1038D00023A887070706460F4A26C8C207817A78B9
:1038E0007323A81F0247144926C84ACD0589119D94
:1038F0006E5C71556441711063480E4926C882148C
:103900007F75F0208ABF124908422A78C21F044AF4
:103910000F4926C89EFEEFA88A4C268E48004B20F1
:103920004926C882509B09911191118999A2222A96
:10393000AAA2228919911191119909A1A2014C0CF5
:103940004A26C882A0FE7F7870604D1C4926C8C2F6
:10395000508DCDC9C541C4C18389098A0912099214
:103960001092102A5E094E174926C8C250231B9B8D
:1039700093130A118A09120992378EBA124F13490A
:1039800026C80ECD05C51115FF5591C9C4110900F2
:1039900050144926C882CD41848C511547071427FD
:1039A00072FA1D0051134926C80ECD05C51115FF29
:1039B0005591C9C4418C01521D4926C882CD41840C
:1039C0008C51154707142722233222321332134217
:1039D0001242AD0453174926C80ECDC9C41155D99A
:1039E0001C19DD7654452613472400540D4926B88A
:1039F000C2032239FDFF0600550F4926C88214FF75
:103A00005F15994C1C9100561E4A26C8C2D084D01E
:103A100084908890C88CC81A9119112111A109A904
:103A20005664ECB60157264A26C8C290A309211154
:103A30002111211121110925124A24941C841C846E
:103A40001C841C841C841C84EC020058204A26C858
:103A500086D08490C88CC81A11A109212B32AE8C53
:103A60002684446446D68808490C0D591D4A26C848
:103A7000C2D0849088CCC888908890C4505519D9F9
:103A8000DC9CDC3AB97572005A184926B8C203B2F8
:103A900031B131B131B155636362636263070704C9
:103AA0005B0B462EC8C223FD3F3A285C17492AC843
:103AB00082DC9CBA39B9B139B9B139B939B9B1393E
:103AC000B9015D0C452EC8C2C18CFEDF1C145E0A14
:103AD00066ECCC06C54188005F084CA0C7C207034E
:103AE000600A84B0CC828C888C00611DCB25D80EF6
:103AF00099D1C88C908C90A4D0CD41088D889488A1
:103B00009408938391120162176926C8829C5E9083
:103B10001C44501C51F15591C541850409006313A3
:103B2000C925C80ECD058911159DAE8A2C288E4851
:103B30000064156926C89EDE581C448C1851F15546
:103B40009105C5418C016516C925C80ECDC9C411A2
:103B500015D5C18338B9A108164724006615692612
:103B6000C812918D8D888C9C460711074172FA23EB
:103B700000671F69E6C68EC541C4C411155591C4BE
:103B800004C5898DDCD8C5411155CDC441880500D7
:103B900068116926C8829C5E901C44901851F15FA0
:103BA00009690D642A788288B888FE9325026A1113
:103BB00007EFD6967A5829FDBFA2A99830A1006BCD
:103BC0001A6926C8829C1EB599901111195123318A
:103BD000E3E66444648550D1006C0C652678828CE1
:103BE000FE7F3343326D24D0253883040DC9C14193
:103BF000048589D1109514951495149514951495F0
:103C00001495149514951495026E10C925C8820454
:103C1000C94104891115FF95006F12C925C80ECD41
:103C2000C98811155F1559501C9100701869E6C6B6
:103C30008204C941048911155F15991C504890C828
:103C4000E90E00711669E6C68EC541C48811155F7C
:103C500015498C4C1CC4D8E901720FC7259882C441
:103C6000C141440995FE15007315C825B80A8DC5D4
:103C7000880D515951591191C5840D090074106670
:103C8000268886906E0E2A84F4474334037510C943
:103C900025C88214FF5591C4C8C4418C01761ECA40
:103CA00025C8C2D084D084908890C88CC81A911935
:103CB000112111A10921AB2A321A00772ED1253802
:103CC000C3D00AA1154243224234222335222325A0
:103CD000332212223322122242221213421613429C
:103CE0002655345534643434007819C929C88250B3
:103CF0009188C888A222B25554352232221342122A
:103D00004203791F6AE6C6C6CC88CC888C3613334A
:103D10001343124312521252CDC8E6369298B1A202
:103D2000027A11CA25C8C203BBB17563DB8DAD3BF6
:103D300038307B14A7AEC7D20C09CD90948E66A400
:103D400056E9D514D1007C08E2B6C7C23F207D13E6
:103D5000A7AEC782D42ABDDA8664484A47333443C3
:103D6000007E0C6A64C94690C881C881007F060045
:103D700020C80200000004FFFF00005F00040305EC
:103D8000050405061614FDFC0EFC0EFE028805D780
:103D90000834200600602C012111C4253443E2E0E0
:103DA000C0424499C4418404002209A5644641826A
:103DB0001702231F8B616449424C424C42E660E289
:103DC0006046424C42E660E26046424C424C420849
:103DD00000242349A65B2930AC4622A224A224A4B5
:103DE00022C8E620E420C628A224A422A42242A6B7
:103DF0002C300800252CEEE17B65464A64224826DB
:103E0000444826244A26424A24DD8870CC988848B3
:103E100054884C90884C508C4C8C92A0A8A950008F
:103E20002623D0258C8B5644524652467242B47893
:103E3000A6C64668822468A66A886A8AA6E620E43E
:103E40006604002708A2642EE16000281205A23350
:103E5000474464446444466F6664668404291105DB
:103E6000A2334148664666469F8C888CA8012A1278
:103E7000E7E0456524C94484C88844C448921100D9
:103E80002B0E4A215C4950A3830323418D002C0C47
:103E9000E4602B43E22062241B002D0865E034E13E
:103EA00041002E0B84202C43E2204202002F10C63A
:103EB000213C495190A22045418A8214013014C905
:103EC000255C676862444662C6BF99901199189A4A
:103ED00001310CC7295C4768A468FFC9013217C9C2
:103EE000255C87466462C66642666C6A6C6A4A4CA8
:103EF000D5C141013319C9255C87466462C6664253
:103F0000664C68526E42C6CD84C84C09003419C94B
:103F1000255C2F4E6C8A51C44CC848CC48CC44D048
:103F2000C481D4D854013517C9255CE320E224307C
:103F3000A14DCCDCD8848C9B09919912003618C90C
:103F4000255CA764858C8DC4D8C408C51A6F266407
:103F500026468466003712C9255CE141D994989CB5
:103F6000989CD8AAB18D003818C9255C674846428C
:103F70008AAAE842C4C824E4A88AAA468606003968
:103F80001AC9255C674864624662C69B89099289A2
:103F9000B109191B8991911A003A0F24253443E283
:103FA00020424CE2204202003B1084653343E22071
:103FB000424CE22062241B003C0C4A215C518C885C
:103FC00033420E053D0CC9A45CE1013DCCC10101A9
:103FD0003E0C4A215C419067449C09023F14C92170
:103FE00054A744E4C66642664CF71062546442002B
:103FF000402ACF2184EB6C4C463244A6444244090B
:10400000898C08898C08858C88841A1109251322CB
:1040100022134492316362074100411ECE1D742F6A
:104020005A76963262324430662E662C6AEA40280E
:104030006C286E446E82AA004222CC2174E1606634
:10404000866468646864686466E62068C9D4C4D419
:10405000C4D4C4D4C4D0C4810C004318CC2174A9E6
:104060002484C598C45821CB0D23E622C66268A4D7
:104070006A004423CE2184E1606A88666C646C64C3
:104080006E626E626E626E626E626E626C646C64B0
:1040900088E46008004523CB216CE1806268624AB5
:1040A0006226246226246244E8684468266826243E
:1040B000622C624A62E8E000461FCB216CE180621C
:1040C00068624A6226246226246244E868446826BC
:1040D000682668709D15004720CD217CA924868420
:1040E000644C644C623062306274D541D8C8D4C824
:1040F000D40C09554904004822CE2184A1A8626C41
:10410000646C646C646C646CE4A0646C646C646C7B
:10411000646C646C646CA2A800490BC5254CA16258
:1041200064FF8B024A15CA1D64AB6C6E9FC84C902D
:104130004C904C088D880C11014B20CE2184A1A6F7
:10414000644A68486A466C446E42D0F06E826C8461
:104150006A866888668AA2C6004C11CA2164A16C6E
:104160006E7F15311531243173604D33D1219CC1DF
:10417000AC848CA68A26622862266426622664267F
:104180006226642464266622642666226426866685
:10419000266866266866642868A226A6004E25CE94
:1041A000218481AA826A862A882AA828054D500877
:1041B00049500C4550505114511451D8CC9848597D
:1041C00008004F18CE2184C98C84666C646C62D060
:1041D0000F27C646C66648C88C00501ACC2174E129
:1041E00040688664886288628862886286E42068A3
:1041F0007287750051204E2283C98C84666C646C72
:1042000062D02F682646464466246628CA8C8527D5
:10421000224B47005223CD2184E1806688646A6482
:104220006A646A6468E6206A6668666886666866C4
:10423000686668C26802005319CA2164872264C58F
:1042400090C4540499D595995559D5C94448090045
:104250005413CB216CE1C064CD8CCC8CCC4CD0E021
:104260007E57035522CE2184A1A8626C642E662E4F
:10427000662E662E662E662E662E662E662E662E9E
:104280006848CE0800561FCF1D74C1A8826C662EE8
:10429000882A6C2A6C2A6E267026722274227678FE
:1042A0003A3C0E00572FD41D9CC1C2A4828668667A
:1042B000682A8886266C86266C86268C2282227046
:1042C00022642270226422908674687468362C38C6
:1042D0002C0C00581DCF218CC3A486688A466E44DE
:1042E000D09498B4D450844C686A88668CA2C80074
:1042F0005917CD217CC186824A662A88466A268C57
:1043000022B072740F6F005A1ACC216CE14158D957
:10431000441845141DE1201DAB08B288B1B2838357
:10432000005B0A04A633C144FF4F085C14C8214C4B
:10433000414C4E4C4E4C4E4C4E4C4E4C4E4C005DF7
:104340000A04A2338144FF4F0C5E0F08A14D474C75
:104350008A8846440B2122015F0849604BE1010134
:10436000600985A43E4166910061142A215CE364E2
:104370006642688C6662CDC4CCC4089301621ACCD4
:104380001D6481722F886846A626A626A626A62624
:10439000A6266846246A006310292154A764C4A88D
:1043A0006CAB8819191200641ACC216C8F724714F7
:1043B00023331453135313531353135323334414FA
:1043C0000465142A215C87686462C8E8E0406E2CAA
:1043D0006248A604006610C8213C874662574336EF
:1043E00053FBA80600671FEB215B5370C46864464B
:1043F0004846486664C848F220E820426A424C6257
:1044000048E606006819CC216C81722F6A484886FC
:1044100046864686468646864686264A0A690BC5ED
:10442000213463642DC97E516A10471633697B10AD
:10443000A2FD9185850809006B18CC216C81724F13
:104440004A668446C226C4AE2688466866282A0C78
:104450006C0AC521348164FF17056D1A3321A481CC
:10446000A2C286A4846468C9D092A125434B8696D3
:104470000CAD28696E182C216C81A2868464686456
:10448000686468646864686468A2A4006F102B2183
:1044900064A7686662CA571333433500701CAC1DAD
:1044A0006361848866646A626A626A626A626A8256
:1044B0006664826872611D00711AAC21638744646E
:1044C00086626A626A626A626A626A648688627224
:1044D000C302721028214C814284426244626A47BE
:1044E00035007314292154852244466228C2E8CA43
:1044F000AA4822A204007412A72144272C4A68C6A5
:1045000064684F224642280075172C216CA18464F0
:104510006864686468646864686468844D050176EA
:10452000152A1D4CA16462286428662468248A8C9C
:104530004E500800771E301D7CA1A264626628647C
:1045400066286684246884248A848C844E48504873
:10455000080078142B2164C1828D0C8554DD5C9594
:10456000048D0C058501791DAB2163A166622A6467
:104570002A662668266A226C226E70324A266A22D1
:104580006E0E007A0F292154E180A686889B22A214
:1045900003027B0F05A233474464278A64467623CF
:1045A000247C07C2315CE1077D1005A233414866D7
:1045B000641B2111913D51037E0C6A246565C54140
:1045C000C4C8080000000004FFFF0000DB2700084B
:1045D00079280008DF2700081815A115C819FF1849
:1045E00015A015C019FF1815AE15D5168015A816FB
:1045F0003F15D316001540158D16141520160015FD
:10460000A115C815DA1612158116CF15D916F11590
:10461000DB1640152E15A415A619FF1815AF19FFA6
:104620001815AE19FF0000000001140A646432324C
:1046300000127A0000042896100800008000400054
:10464000000000000000000000000000000000006A
:10465000000000000000000000000000000000005A
:10466000000000000000000000000000000000004A
:10467000000000000000000000000000000000003A
:10468000000000000000000000000000000000002A
:10469000000000000000000000000000000000001A
:1046A000232D302B2000686C4C006566674546471B
:1046B000003031323334353637383941424344459E
:1046C000460030313233343536373839616263640D
:0446D000656600001B
:0446D40031010008A8
:0446D8000D010008C8
:1046DC0001000000100000000024F4001000002075
:1046EC0000000000604600088046000840460008B4
:1046FC0000000000000000000000000000000000AE
:10470C00000000000000000000000000000000009D
:10471C00000000000000000000000000000000008D
:10472C00000000000000000000000000000000007D
:10473C00000000000000000000000000000000006D
:0400000508002C7152
:00000001FF
